S022000062745F736F635F77616E64795F6272643236303162325F626574612E733337E7
S31508012000C00A0020854201084FC403084FC40308CB
S315080120106DE103084FC403084FC403084FC40308FE
S315080120204FC403084FC403084FC403084FC4030829
S315080120304FC40308B4FA0408C5BB03084FC4030810
S315080120404FC403084FC403084FC403084FC4030809
S315080120504FC403084FC403084FC403084FC40308F9
S315080120604FC403084FC403084FC403088538010841
S31508012070CBBC03084FC403084FC4030891480108A1
S315080120804FC403084FC403084FC403084FC40308C9
S315080120904FC40308716501084FC403084FC40308F8
S315080120A04FC40308ED660108C96601084FC4030851
S315080120B04FC40308118603082D900308EDB10408DF
S315080120C0E9B10408F9870308F9B10408F1B104086C
S315080120D005900308F5B104086D900308D19003082B
S315080120E04FC403084FC403084FC403084FC4030869
S315080120F0B7DD03084FC403084FC403084FC40308D8
S315080121004FC403084FC403084FC403084FC4030848
S315080121104FC403084FC403084FC403084FC4030838
S315080121204FC403084FC403084FC403084FC4030828
S315080121304FC403084FC403084FC403084FC4030818
S315080121404FC403084FC403084FC4030879E20308C0
S31508012150F16E03084FC4030891AE040897AE04084C
S315080121604FC403084FC403084FC403084FC40308E8
S31508012170013800D0FCE77047B7EE007AC7EE007A5F
S3150801218010B580ED140AC0ED157A044610EE100A52
S3150801219027F07AF902460B4605A1D1E9000127F095
S315080121A0F5FA27F08BFCA06510BD00BFAFF30080E0
S315080121B0399D52A246DF913F2DE9F0432DED048B5F
S315080121C0884600F15C05044690ED098AD0ED0A8A35
S315080121D090ED0B9A85B02846174610EE106A2AF03C
S315080121E0C6F8B8F1000F53D0606A27F04DF946A337
S315080121F0D3E900238046894627F024FC002847D0E6
S3150801220043A3D3E900234046494627F011FC002899
S315080122103ED0A06A27F038F93BA3D3E900238046CC
S31508012220894627F00FFC98B339A3D3E90023404622
S31508012230494627F0FDFB58B3B5EEC09AF1EE10FA00
S31508012240B1EE488AB1EE680A04F1680825DB29F07F
S3150801225085F88DED010AB0EE480A29F07FF8B1EE4E
S31508012260400A2846424601A98DED020A03962AF03C
S31508012270B6F828462AF06EF80FB900236366D4ED3E
S31508012280147AB6EE000A284680EE270A2AF087F85D
S3150801229005B0BDEC048BBDE8F08329F05FF810EEBC
S315080122A0100A27F0F1F802460B461BA1D1E90001F5
S315080122B026F08AFF27F002FCB0EE480A019029F0C1
S315080122C04DF8B1EE400A30468DED020A27F0DCF8EA
S315080122D011A3D3E9002326F079FF27F0EFFB03903A
S315080122E001A82AF037F84246284601A92AF077F8C4
S315080122F028462AF02FF8D4ED187AF1EE677AC4ED5C
S31508012300187AB9E7AFF30080C139234A7B83EFBF57
S31508012310C139234A7B83EF3F182D4454FB210940D9
S315080123202DE9F0471EA7D7E900670FF27C09D9E91D
S3150801233000898246DAF8000027F0A6F832463B46BD
S3150801234004460D4627F07EFB98B90FF26409D9E9D0
S31508012350008915A7D7E90067DAF8000027F094F88D
S3150801236042464B4604460D4627F058FB60B9BDE880
S31508012370F08742464B462046294626F025FF27F098
S315080123809DFBCAF80000D5E732463B46204629465A
S3150801239026F01CFF27F092FBCAF80000DCE700BF15
S315080123A0182D4454FB210940182D4454FB2119408A
S315080123B0182D4454FB2109C038B50022164B51EC9F
S315080123C0100B27F0B9F810A3D3E9002304460D46EC
S315080123D027F042FB70B90EA3D3E90023204629460C
S315080123E027F01CFB58B92046294627F0ADFE00EE1A
S315080123F0100A38BD47F6FF3300EE103AF9E74FF6F3
S31508012400FF33F9E7AFF300800000000000FCEF405E
S315080124100000000000FCEFC00000E04000000000E2
S315080124202DE9F84F4FF000432DED028B23FA00F00A
S3150801243057EC106B59EC118B93468A4627F012F824
S31508012440424604460D464B463046394627F074F84F
S3150801245002460B462046294627F06EF802460B46E9
S3150801246043EC182B0AA3D3E9002327F0F5FA08B1A0
S315080124709FED078B59465046B0EE480AF0EE680ABA
S31508012480BDEC028BBDE8F84F0CF0C0BCAFF3008081
S315080124900000C0FFFFFFDF412DE9F74F0446DDE9E4
S315080124A00C7B886815461E468A4626F0EDFF80464F
S315080124B0A868894626F0E8FF02460B464046494683
S315080124C027F03AF880468946D6B1B06826F0DCFF8F
S315080124D002460B464046494626F076FE8046B868CF
S315080124E021F0004926F0D0FF02460B4640464946F0
S315080124F027F04CF911A3D3E9002327F099FA50B133
S315080125003B462A4651462046CDF830B003B0BDE8D1
S31508012510F04F0CF0D9BC064B20460093656940F292
S315080125204513044A0449A847012003B0BDE8F08FC2
S31508012530A01F0508E81E0508D00E05087B14AE473E
S31508012540E17A943F000000002DE9F0432DED028B5E
S3150801255099460B7F89B0072B044688461646129F73
S3150801256020D140F20241836B984770B9AC4B009376
S31508012570272365692046AB4AAB49A8470125284662
S3150801258009B0BDEC028BBDE8F083B86240F20241A6
S315080125902046A36B984720B9A44B009365692B2362
S315080125A0E8E7F862327F98F81C30072A08D1092B28
S315080125B03AD0072B13D09E4B009365693123D9E78F
S315080125C09A4231D0CDE902329A4B01939A4B009344
S315080125D0342365692046934A9849A847CEE7F568A2
S315080125E04DB10023CDE90253954B0193954B0093C9
S315080125F065693923EEE72946DFED930A47F6FF7049
S315080126009FED920ABB6A924A0FF028F8FB6A29469F
S31508012610DFED8D0A9FED8F0A8F4A90480FF01EF85D
S31508012620F368FB61B3683B6298F81C50092D44D0E6
S31508012630072D40F03581D8F80C304BB10022CDE991
S3150801264002327F4B0193864B009365695B23C1E791
S31508012650F26842B1CDE90223794B0193794B009394
S3150801266065695C23B6E7DFED7F7A96ED027AB4EE0B
S31508012670E77AF1EE10FADFED7C6ACCBF77EE677A7E
S3150801268077EEC77AF4EEE67AF1EE10FA7DDD4FF0D1
S315080126907C53002217EE100ACDE9042326F0F4FE36
S315080126A0724BCDE902010193714B00935D23656974
S315080126B020465C4A6F49A84760E7307F072832D130
S315080126C0F36813F5004F09D0644ACDE902326A4B23
S315080126D001935C4B0093656962237BE7DFED677ABB
S315080126E096ED027AB4EEE77AF1EE10FADFED646A56
S315080126F0CCBF77EE677A77EEC77AF4EEE67AF1EE33
S3150801270010FA63DD00225F4B17EE100ACDE90423A8
S3150801271026F0BAFE5C4BCDE902010193544B0093B6
S3150801272065696323C4E7092812D067690CF0D8FAEA
S31508012730064628460CF0D4FA544BCDE902600193BB
S315080127403C4B20460093374A66235149B84715E75B
S31508012750F36813F1800F0AD06FF07F02CDE90232D8
S315080127604C4B0193374B00936569672332E796ED26
S31508012770027ADFED497AB4EE677AF1EE10FA25D0DE
S31508012780464B009365696823F4E6D8F8080026F0F5
S315080127907BFE0446D9F800000D4626F075FE024672
S315080127A00B462046294626F0C7FE1BA3D3E900237C
S315080127B026F0ECFF07F1080641EC100B304607A995
S315080127C00CF0E2FA079BFB600025D8E6D8F808006A
S315080127D026F05AFE41EC180BD9F8000026F054FEF3
S315080127E007F1080441EC100BB0EE481AF0EE681A2E
S315080127F02146052007AAFFF713FE07991F22F9604C
S3150801280005202EF029FE26F02DFE01F1004319467A
S3150801281027F02CF9B861D7E7140014001400243FF7
S3150801282038380508B6370508D00E05084F380508A3
S3150801283044200508223705082F3705083D0F0508E6
S315080128409E1F05087238050880000038A000203947
S315080128505F24040880008037512404080080FFFFA4
S315080128608C380508000000386F120333C53805088F
S31508012870D1380508A5380508E63805080000803767
S315080128806F1283320000F03EED380508F938050865
S3150801289008370508053905080000803B0A39050887
S315080128A0012D13D0284666690CF01AFA054601204F
S315080128B00CF016FA144BCDE902500193134B20463E
S315080128C00093134A85231349B04757E6307F0128F9
S315080128D012D067690CF004FA064628460CF000FA8D
S315080128E0094BCDE9026001930B4B20460093084A38
S315080128F086230849B84742E6D9F8000026F0C4FD00
S31508012900C7E9000160E700BFD43305082F3705087A
S31508012910B6370508083705082237050800000000FC
S31508012920002370B5404C05468AB0E36318B10088A8
S31508012930236015F0DBFA3D4837F0C2FF3C4E3D4BAC
S31508012940304633603C4B736032F00AFE0021304654
S315080129501FF094FE32A3D3E90023A062C4E906233B
S3150801296032F009FED4E90623194310434FF0FF3329
S31508012970C4E90601CDE900014FF0FF32A06A37F03C
S31508012980ECFF02224FF0FF31A06A37F0EBFF01207E
S3150801299015F08AF84FF4007300222849A06A38F026
S315080129A037F8B0F5007F38D100239422CDE90733F3
S315080129B009933C23CDE9033205939623A06A03A91B
S315080129C006931FF077FF35B3287C15F055FC0546AD
S315080129D0F0B9A06A38F0FDF815F0F6FB15F046F8DF
S315080129E020B14FF48070002112F0A2FC15F04EF8C8
S315080129F020B14FF40060002112F09AFC32F07FFDFD
S31508012A0001201FF08FFE0E4A0E49A06A32F0A6FD7C
S31508012A1028460AB070BDFF20D7E70725F8E700BFAB
S31508012A200DD5015520000000602F0020690345ECF3
S31508012A30584A00203D7902084C4A00204C4800209B
S31508012A40055504084555040851EC100BF8B5C1F3B2
S31508012A500A530C4610EE106AA3F2FF35132D30DC2B
S31508012A60002D1EDB384F2F4101EA070303432DD002
S31508012A7033A3D3E9002326F0A9FB0022002326F07D
S31508012A80EBFF48B1002C04DA4FF4801343FA05F53D
S31508012A902C4424EA070400262346324643EC102B2D
S31508012AA0F8BD27A3D3E9002326F090FB00220023D3
S31508012AB026F0D2FF0028EFD0002C29DB0026344669
S31508012AC0EAE7332D05DDB5F5806F19D041EC100B1A
S31508012AD0F8BDA3F213434FF0FF37DF400742F5D0A5
S31508012AE017A3D3E9002326F071FB0022002326F061
S31508012AF0B3FF0028D0D0002C13DB26EA0706CBE764
S31508012B0010EE102A0B4626F061FB41EC100BF8BDBE
S31508012B1024F000430D4A33430026B34218BF144636
S31508012B20BAE7142D08D00123C5F1340503FA05F5D2
S31508012B30AE1928BFE418E0E70134DEE7AFF30080F9
S31508012B409C7500883CE4377EFFFF0F000000F0BF4C
S31508012B5010B5054C237833B9044B13B1044800E08A
S31508012B6000BF0123237010BDC03100200000000002
S31508012B70907F050808B5034B1BB10349034800E0DC
S31508012B8000BF08BD00000000C4310020907F050881
S31508012B90A3F5803A704700BF174B002B08BF134BAC
S31508012BA09D46FFF7F5FF00218B460F461348144A49
S31508012BB0121A38F089FB0E4B002B00D098470D4BA3
S31508012BC0002B00D098470020002104000D000D4875
S31508012BD0002802D00C4800E000BF27F03BFB20008C
S31508012BE0290028F0E3FF27F00FFB00BF00000800CB
S31508012BF00000000000000000C00A0020E80E0020C6
S31508012C00E0550020000000000000000037B501F083
S31508012C107DFA00B301F058FA684601F01BFA06225C
S31508012C200E490F4C0B68BDF800505A43A018A5521F
S31508012C30BDF8022001334280BDF80420592B828059
S31508012C400B6008DDC72B4FF00100C8BF0023054AFA
S31508012C50C8BF0B60107003B030BD00BFDC31002067
S31508012C60384F00203854002013B501F087F904467F
S31508012C70C8B9B3EE090A01F0ADF901222346114696
S31508012C80104605F059F922460949012003F0F0FCDE
S31508012C90FF2802464FF0010108D023460846CDE930
S31508012CA0001105F0F1F8204602B010BD0C46FAE70E
S31508012CB00D2C0108F8B51D4B04461B780E4693B337
S31508012CC029F050FF4FF0060C194B1A491A6823468A
S31508012CD0951BB41A6219964221DD2A46002DB8BF02
S31508012CE005F1C8020CFB02F28F18B7F902E08A5EF9
S31508012CF0B7F9047007EE10EA07EE907A06EE902A05
S31508012D00B8EEC77AF8EEE66AF8EEE77AC3ED006A36
S31508012D1083ED017AC3ED027A01350C33DAE729F03E
S31508012D2025FF0020F8BD0120FCE700BF385400202C
S31508012D30DC310020384F002008B5134A13481378B0
S31508012D400133DBB21370124A1278013A052A17D8F1
S31508012D50DFE802F00D0D0D0A160329F067FEBDE83E
S31508012D6008400C4829F05FBE29F05DFEF7E7DB074E
S31508012D70FAD529F05BFEBDE80840064829F056BE9B
S31508012D8029F051FEF7E700BFA4540020B0BD04089E
S31508012D90A3540020C8BD040837B51B4D1B4C287029
S31508012DA028F0D1FF28F0D0FF2B78194AC3EB03137B
S31508012DB013441849002220682BF04DF82B78062B6E
S31508012DC019D101220DF107038DF80720124913487D
S31508012DD00988007818F014F8054628F0B4FF28F099
S31508012DE0B3FF9DF807300E492068AAB22BF033F8D5
S31508012DF0002003B030BD052BFAD1002301228DF83E
S31508012E0007300DF10703E1E7A3540020243300201E
S31508012E103954002080B60408E85300200A0D002022
S31508012E209DB6040813B5204C28F08DFF28F08CFFB9
S31508012E301E4920682BF00FF828F085FF28F084FF3B
S31508012E4020681B4C1B492BF006F820461A4938F016
S31508012E5026FB1A4904F10F0038F021FB184904F141
S31508012E601E0038F01CFB174904F12D0038F017FB3A
S31508012E70154904F13C0038F012FB144904F14B00E2
S31508012E8038F00DFB124904F15A0038F008FB00230B
S31508012E906421CDE900330F4A0F4808F0D7FC02B088
S31508012EA0BDE8104000F002BA24330020D2B6040867
S31508012EB039540020EBB60408F8B60408FDB6040830
S31508012EC002B704080AB704089C14050819B70408C8
S31508012ED050140508392D0108E43100202DE9F04781
S31508012EE00368AF4A23F47F4323F00703934204465A
S31508012EF08AB000F042810FD8AA4A934200F09D8019
S31508012F0002F58032934200F09F80A2F5A0229342F7
S31508012F1027D00AB0BDE8F087A34A934200F0AE80F5
S31508012F2002F18062934200F0C58002F17B4293422E
S31508012F30EFD1427A102AECD100F10A019B4838F008
S31508012F408CF90028E5D128F0FEFE28F0FDFE984B05
S31508012F50984918682AF07FFFD4F80520964B1A601D
S31508012F60D7E7934D28F0EFFE28F0EEFE934928683F
S31508012F702AF071FF0120FFF70FFF0121084617F01C
S31508012F808FFF044628F0DFFE28F0DEFE8C49A2B248
S31508012F9051E004EB0A03DD7D1B7E083B012B15D8A6
S31508012FA06E1E0AF115013246494402A838F065F940
S31508012FB005F127030DEB03060023404606F8203CDE
S31508012FC002A938F062FA002808BF012701355544DD
S31508012FD05FFA85FAA37D013B9A45DADB002F98D083
S31508012FE0734D28F0B0FE28F0AFFE764928682AF01E
S31508012FF032FF754B0093617AA67AE27A41EA062195
S315080130000123D4F8050017F08FFE044628F09BFE2D
S3150801301028F09AFE6D492868A2B22AF01CFF002CF6
S315080130207FF477AF17F030FF044628F08CFE28F0BE
S315080130308BFE6749A2B2286877E00027DFF8BC81D2
S31508013040BA4600F10409C5E7594D28F07CFE28F077
S315080130507BFE604928682AF0FEFE0220FFF79CFEE7
S31508013060594B1021514A187817F09EFE044628F04C
S315080130706AFE28F069FE5849A2B2DCE7027A102AEC
S315080130807FF447AF00F10901544838F0E6F8002803
S315080130907FF43FAF28F057FE28F056FE444B5049BF
S315080130A018682AF0D8FEA279637943EA02234D4AC1
S315080130B013802EE74C4B1B78062B3FF62AAF042BC1
S315080130C04FD8022B15D0032B7FF423AF384D28F0A8
S315080130D03AFE28F039FE454928682AF0BCFE414BDC
S315080130E01B88002B31D004200AB0BDE8F047FFF752
S315080130F053BE2F4C304E28F026FE28F025FE3B49BC
S3150801310020682AF0A8FE33682F4D9BB10320FFF7EC
S3150801311043FE3168287817F05DFE054628F013FE50
S3150801312028F012FE3249AAB220680AB0BDE8F04773
S315080131302AF091BE287817F025FE054628F003FEE9
S3150801314028F002FE2B49AAB2EEE71F4B187817F0B2
S3150801315019FE044628F0F7FD28F0F6FD2549A2B226
S3150801316069E728F0F0FD28F0EFFD114B1F491868B3
S315080131700AB0BDE8F0472AF06EBE0D4D28F0E3FD12
S3150801318028F0E2FD1C4928682AF065FEFF220E4B4D
S315080131901A700023084A1360124A1380EAE600BF30
S315080131A0A0000601A0000500A0000902B4B90408A0
S315080131B02433002069B80408E03100201DB704084B
S315080131C048B7040878B704080A0D0020BBB70408F5
S315080131D0DEB70408FEB704082FB80408A4B9040822
S315080131E095B80408E8530020A3540020C8B8040879
S315080131F000B9040831B9040855B9040869B70408BF
S3150801320038B5044629F0CAFB104B05469C4218D02E
S315080132100F4A944214BFFF24012428F094FD28F094
S3150801322093FD0C482B4622460B4900682AF013FEEB
S31508013230012D05D1FF2C03D0084B24B905221A709C
S3150801324038BD0024E9E70622F9E700BF80BD040876
S3150801325098BD04082433002086B90408A254002026
S31508013260062808D8431F012B03D8044B1B78032BC8
S3150801327001D9FFF791BD0120704700BFA354002073
S3150801328010B5064C00F06AF82078431F012B01D8C7
S31508013290FFF7E6FF0023237010BD00BFA2540020EC
S315080132A00122014B1A707047A554002013B5204816
S315080132B027F0C0FB1F4827F0BDFB0BF0F9FA1E4C9F
S315080132C020600BF0EFFA1D4B2268186053691968E4
S315080132D004290BD15968012908D199685A2905D1B8
S315080132E0DB68032B02D1137F012B05D0144802B0EA
S315080132F0BDE8104027F09EBB9369124A9B081360EC
S31508013300FFF7B2FC08B11048F1E700210846FFF7BC
S31508013310D1FC0028F9D10D4BC82118700C4A034677
S31508013320CDE900000B4808F091FA0B48DFE700BF2A
S31508013330C4B90408CFB904080832002004320020B1
S31508013340D6B904080C32002002BA0408A554002094
S31508013350A13201081032002024BA04080322204BA6
S3150801336010B519681F4B91FBF2F11B681869FFF735
S31508013370A1FC012832D01C4B1A787AB300221B4CC7
S315080133801A7020680DF06CF9014620B1BDE81040AD
S31508013390174827F04FBB20680CF04CFF006900F076
S315080133A02FF804462AF03CFF08F08CFA014624B9A6
S315080133B0BDE810400F4827F0B7BA012C07D10E48CF
S315080133C027F0B2FA0520BDE81040FFF749BF022CE5
S315080133D004D10A4827F0A8FA0620F4E710BD00BF71
S315080133E00C32002008320020A554002004320020A7
S315080133F02ABA040842BA04085CBA040876BA040868
S31508013400F0B50FC82C4F2D4C3D68DFED2D6A04EB46
S31508013410051686E80F0000220135042DC8BF15469A
S3150801342023464FF0FF30F0EE665AB1EE046A3D606E
S31508013430F3EC017A93ED037A77EEA57A77EE877A3C
S3150801344093ED077A77EE877A93ED0B7A77EE877A9B
S3150801345093ED0F7A77EE877A411C87EE867A27D025
S31508013460B4EEE67AF1EE10FA22DCB0EE667A0132B3
S31508013470042A1AD1134B1A68002AC4BF02F1FF3273
S315080134801A60032810D0DFED107AB4EEE77AF1EE70
S3150801349010FA0FD40D4A1168814202D11968002920
S315080134A008DC122110601960F0BDF0EE476ABFE72B
S315080134B01046DCE70320F7E73032002038320020D7
S315080134C000000000343200206666663FC40A002008
S315080134D030B503687F4A23F47F4323F007039342F9
S315080134E089B040F0F4800822002112207A4B17F0A7
S315080134F09DFC044610B3794D794928682AF0ABFC3E
S31508013500784928682AF0A7FC28F01DFC28F01CFC3D
S31508013510754B764A009376493D2328682AF09BFC29
S3150801352074492346744A28682AF095FC204600F017
S315080135309DFA724928682AF08EFCFEE701460322A5
S3150801354014206F4B17F072FC044610B3634D64499F
S3150801355028682AF080FC634928682AF07CFC28F050
S31508013560F2FB28F0F1FB604B604A009360494B235C
S3150801357028682AF070FC5F4923465F4A28682AF0C2
S315080135806AFC204600F072FA5C4928682AF063FC56
S31508013590FEE70146052216205A4B17F047FC054659
S315080135A010B34E4C4E4920682AF055FC4D49206807
S315080135B02AF051FC28F0C7FB28F0C6FB4A4B4B4AB8
S315080135C000934B49592320682AF045FC49492B4663
S315080135D0494A20682AF03FFC284600F047FA47493D
S315080135E020682AF038FCFEE70DF10F0104A817F050
S315080135F06BFC044610B3394D394928682AF02BFC6F
S31508013600384928682AF027FC28F09DFB28F09CFBFE
S31508013610354B364A00933649642328682AF01BFC41
S3150801362034492346344A28682AF015FC204600F016
S315080136301DFA324928682AF00EFCFEE79DF8153076
S3150801364001468DF818309DF8143008228DF8193086
S315080136509DF8133018208DF81A30FF238DF81B308A
S31508013660FE238DF81C309DF812308DF81D309DF81B
S3150801367011308DF81E309DF810308DF81F3006ABCD
S3150801368017F0D4FB054610B3144C154920682AF0E7
S31508013690E2FB144920682AF0DEFB28F054FB28F0E7
S315080136A053FB114B114A00931149742320682AF0E0
S315080136B0D2FB10492B46104A20682AF0CCFB284633
S315080136C000F0D4F90D4920682AF0C5FBFEE709B0D8
S315080136D030BD00BFA000010091BA040824330020C0
S315080136E067B804089ABA040806BB04089FBA04080E
S315080136F0C7BA0408D6BA0408D3BA0408EBBA040848
S31508013700FCBA040800BB040810B5274C03F00CFDED
S3150801371003F05EFF236F23F0070343F003032367D8
S3150801372029F00BFA214B00209B6ADB015EBF4FF49F
S3150801373080321F4B9A62D4F8203123F0070343F0F5
S315080137400203C4F82031D4F8283123F0070343F0E3
S315080137500203C4F82831D4F8403123F0030343F0B7
S315080137600203C4F84031D4F8603123F0030343F06F
S315080137700203C4F86031D4F8403223F0030343F05E
S315080137800203C4F84032D4F8003223F0070343F0A9
S315080137900203C4F80032D4F8083223F0070343F0D1
S315080137A00203C4F8083210BD008000500040005AD8
S315080137B00060005A30B5204D9DB008AC0FCD0FC43E
S315080137C095E80F0084E80F002C22002111A837F094
S315080137D07BFD1A4B102210935623129305230124BD
S315080137E0159306230DEB020000218DF8454017932A
S315080137F037F06AFD4FF47020114B08AACDE9020390
S315080138000B238DF810300C238DF811300D4B02A9BE
S315080138100593202306930C4B0C48009310AB8DF8A7
S315080138201D4006F0EFFD044600214FF4E13028F073
S31508013830D0FA20461DB030BD60BD04080000015B0A
S315080138403C00015BA654002088320020003300208A
S31508013850022905D8034B1B68186808B1436A18473B
S31508013860704700BFD00A002008B50449044807F08C
S315080138702DFBBDE80840FFF79DBF00BFC80A002021
S31508013880F832002001482AF01DBB00BF0033002092
S31508013890014B1A6A186810470033002008B5044816
S315080138A029F077F8BDE80840024829F072B800BF48
S315080138B080BD040898BD040808B5044829F0B0F885
S315080138C0BDE80840024829F0ABB800BFB0BD0408FE
S315080138D0C8BD04087FB500240368464A23F47F431C
S315080138E023F00703934205468DF808408DF80940F1
S315080138F08DF80A408DF80B408DF80C408DF80D4077
S315080139006DD002F18272934271D1B0F805301B2B4A
S315080139106DD1FF2304A91A4611E9030028F00CFA10
S31508013920012814BF41F2FC14334B4FF01B0108BFA9
S31508013930187004F0FC02287917F08EFA064610B3BF
S315080139402E4C2F4920682AF086FA2E4920682AF03B
S3150801395082FA28F0F8F928F0F7F92B4B2B4A00934D
S315080139602B494E2320682AF076FA2A4933462A4AF1
S3150801397020682AF070FA304600F078F8274920685E
S315080139802AF069FAFEE71C4B1B78002B2FD0287901
S3150801399017F0F8F9054650B3184C194920682AF06A
S315080139A05AFA184920682AF056FA28F0CCF928F06C
S315080139B0CBF9154B154A00931549542320682AF06B
S315080139C04AFA14492B46144A20682AF044FA28462A
S315080139D000F04CF8114920682AF03DFAFEE7064B3B
S315080139E01B7823B104B0BDE870402AF07DBC04B051
S315080139F070BD00BFA0000601C65400202433002074
S31508013A0067B804089ABA04083BFA0408C8F904080E
S31508013A10C7BA0408D6BA0408D3BA0408EBBA040824
S31508013A20012208B5074B1A700022074B1A700422A7
S31508013A30064B1A701F22064B1A7006F07BFC054BC3
S31508013A40186008BD110D0020C7540020120D002072
S31508013A50130D002024330020024B034918682AF06D
S31508013A60FAB900BF243300205BFA040870B50C4C80
S31508013A700C49064620682AF0EEF906F05BFC054675
S31508013A80206806F04BFC3046FFF7E6FF284606F0AD
S31508013A9045FC20680449BDE870402AF0DCB900BF3E
S31508013AA0243300205DFA04085FFA0408202808B5C3
S31508013AB015DC032804DC0138012808D90E200DE09D
S31508013AC00123043803FA00F0084B1842F6D0012303
S31508013AD004220921022004F02FFA002008BD4028FB
S31508013AE0ECD1012304220821F4E700BF11000010DC
S31508013AF007B5082028F07BFF02238DF80030054B17
S31508013B006846019328F035F9082003B05DF804EBFF
S31508013B1028F079BF006A181070B5144680220C4B3C
S31508013B200D461A6440EA02010A4829F075F8094E59
S31508013B302544AC4204D18022074B00201A6470BD8B
S31508013B400021304629F068F804F8010BF1E700BFB7
S31508013B5000E0035000000A5000D00350F8B5802653
S31508013B600D46094C094F04F500531E6400F07F0108
S31508013B70384629F051F804F580542946384629F083
S31508013B804BF800202664F8BD00C0035000000A5017
S31508013B9070B5264C8EB0264601AD0FCE14340FC52E
S31508013BA00FCC06AD0FC594E80F0085E80F00204B32
S31508013BB00121039306AB05934FF480735720ADF8A3
S31508013BC01C3003F06DF801213A2003F069F800234F
S31508013BD004220321022004F0AFF90221002308463A
S31508013BE0012204F0A9F9002304220121022004F08C
S31508013BF0A3F9012304220721002004F09DF90D48A9
S31508013C0001A904F089F80C4B0C4A0020C3F8CC240E
S31508013C104FF00212C3F8C424A2F58032C3F8C824AF
S31508013C201C22C3F8B4240EB070BD00BF64FA0408A0
S31508013C30A05A320000000A5000C0035002000300D7
S31508013C4013B510EE100A25F01FFC02460B4600209C
S31508013C501A4925F09BFD0022194B25F0B5FA25F0E6
S31508013C602DFF9FED187A07EE900AF4EEC77AF1EE6A
S31508013C7010FA1FDCF5EEC07AF1EE10FA01D5DFED88
S31508013C80127AFCEEE77ACDED017A9DF80440192007
S31508013C902146FFF763FF601C25F0E4FB02460B464D
S31508013CA00020064925F072FD25F008FF00EE100AEE
S31508013CB002B010BDF0EE477AE3E700BF00408F403F
S31508013CC00000F03F00007F430000000013B50446E2
S31508013CD001211B200DF10702FFF71EFF9DF8073092
S31508013CE003F01800102811D005D840B1082809D0CA
S31508013CF0012002B010BD1828FAD1054B03E0054A88
S31508013D002260F6E7044B00202360F2E7034BFAE74B
S31508013D1000007A3D0000FA3B00007A3C0000FA3CBC
S31508013D2001212DE9F043002285B08046084628F096
S31508013D306AF99FED760AFFF783FF052028F09EF8BA
S31508013D40002028F04BF96846FFF7C0FF322007F03C
S31508013D5043FD40211A20FFF701FF44216A20FFF79E
S31508013D60FDFE78212320FFF7F9FE052007F034FD33
S31508013D700221722001AAFFF7CFFEBDF804305BBA13
S31508013D809BB2B3F5FC7FF0D34FF000090C277822DC
S31508013D900021232028F038F80221722001AAFFF712
S31508013DA0BBFEBDF804404D4664BAA4B2B4FBF7F7AE
S31508013DB04E464C461FFA89F3BB42C0F08A8096FBF1
S31508013DC0F7F607EE906A9DED007AF8EEE77A95FB2D
S31508013DD0F7F567EE877AC8ED007A07EE905AF8EE9E
S31508013DE0E77A94FBF7F467EE877AC8ED017A07EE6E
S31508013DF0904AF8EEE77A67EE877A01AAC8ED027A61
S31508013E0002211320FFF788FE9DF904309DF80580ED
S31508013E1001AA0221152048EA0328FFF77DFE9DF92C
S31508013E2004309DF8057001AA0221172047EA0327E5
S31508013E30FFF772FE002E9DF904209DF80530B8BFE4
S31508013E400336002DB8BF0335002CB8BF033443EA47
S31508013E500223A7EBA505A3EBA404A8EBA6062B1240
S31508013E60C6F307218DF80630132023128DF8083082
S31508013E708DF804108DF805608DF807508DF8094006
S31508013E80FFF76CFE9DF805101420FFF767FE9DF8F5
S31508013E9006101520FFF762FE9DF807101620FFF79A
S31508013EA05DFE9DF808101720FFF758FE9DF80910CA
S31508013EB01820FFF753FE402200216A2027F0A4FFAD
S31508013EC000221146104628F09EF8002005B0BDE8EC
S31508013ED0F08301AA0C217420FFF71EFE9DF90A2022
S31508013EE09DF80B3009F1010943EA02231E449DF9A5
S31508013EF00C209DF80D3043EA02231D449DF90E203E
S31508013F009DF80F3043EA02231C4453E700007A4424
S31508013F1037B5044600F058F80128054629D104F1B9
S31508013F2024010846019100F0D5F82046019928F0A8
S31508013F309AF904F144010846019100F0D9F8D4ED43
S31508013F40117AF1EE677AC4ED117AD4ED127AF1EEAF
S31508013F50677A20460199C4ED127A28F0A0F99FEDF7
S31508013F60060A00222946204603B0BDE83040FEF77E
S31508013F7023B903B030BD00BF000000007FB502269B
S31508013F800F4D10482E7028F04CF927F053FF0446C0
S31508013F9080B90DF1030028F076F8044650B90323D9
S31508013FA001A82B70FFF7BCFE044618B92E702046EF
S31508013FB004B070BD27F01CFF00232B70F7E700BF84
S31508013FC0C854002030330020014B1878704700BFD1
S31508013FD0C85400200121022330B51B4D85B00022AB
S31508013FE008462B708DED010A28F00DF89DED010AA2
S31508013FF0FFF726FE154C082084ED000A27F04EFF30
S31508014000032027F03BFF002027F0D3FF002027F0ED
S31508014010E5FF322007F0E0FB0021012028F00BF82C
S3150801402003A828F016F894ED000A094828F018F9AB
S3150801403094ED000A0648FEF79FF8054828F04BF963
S3150801404001232B7005B030BDC8540020A4330020CD
S31508014050303300201A4AD36B6BB392ED0C6A9FED8D
S31508014060197A07EE903A26EE076AF8EE677AC6EEEF
S31508014070276A92ED0D6AFDEEE66A26EE076A16EEE6
S31508014080903AC6EE276AFDEEE66A038016EE903A86
S31508014090D2ED0E6A66EE876A86EEA77ABDEEC77A14
S315080140A0438017EE103A83800023136353639363A7
S315080140B00023D3637047038043808380704700BF22
S315080140C03033002000007A440148FFF721BF00BFC2
S315080140D030330020054A1278012A04D000220260F2
S315080140E042608260704727F004BF00BFC8540020B1
S315080140F0054A1278012A04D00022026042608260D1
S31508014100704727F026BF00BFC854002008B5094BE1
S315080141101B78012B01D0002008BD27F0A6FF064A0F
S315080141201368013313600028F5D0044A1368013374
S315080141301360F1E7C8540020283300202C330020EF
S315080141409FED060A00F10C03B0EC017AF1EC017A55
S31508014150984207EE270AF7D1704700BF0000000012
S315080141602DE9F041424D88B001AC0FCD0FC495E859
S31508014170070084E80700012401213A2002F090FD96
S315080141803C4E0121292002F08BFD3B4B304601A90B
S3150801419003938DF8124004F08BF823460422032179
S315080141A0022003F0C9FE022122460846002303F035
S315080141B0C3FE234621460422022003F0BDFE042243
S315080141C000212346022003F0B7FE2C4D2C4B05F5A2
S315080141D00058C5F834374FF00213C5F8303703F5E0
S315080141E08033C5F838371C234FF44870C5F8203793
S315080141F007F032FD05F580571420C8F8A04007F0EE
S315080142002BFD2320C7F8A04007F026FDB92130462B
S31508014210C8F8A04028F086FD002303211A4602208B
S31508014220C7F8A04003F088FE002302211A46084673
S3150801423003F082FE234621460022022003F07CFE7B
S31508014240002223461146022003F076FE304604F08A
S315080142500DF800212920C5F83417C5F83017C5F817
S315080142603817C5F8201702F01BFD08B0BDE8F08124
S3150801427098FA040800C0055000127A0000C00350DD
S315080142800200010008B500F02DF8124B12498B42C5
S3150801429012D30020114B12498B4218D3FEF77CFC2E
S315080142A0186850F82240586840F822400132986848
S315080142B08242F5D30C33EAE70022F8E71C6844F892
S315080142C0220001325C68A242F8D30833E4E70022EF
S315080142D0F8E700BF987F0508A47F0508A47F0508AD
S315080142E0A47F05084FF480414FF0FF30114B124A65
S315080142F010B59A60D3F8882042F47002C3F8882072
S315080143000E4A91660E4901F5005210660D4850662F
S315080143100220C3F8D000BFF34F8FBFF36F8F01247C
S315080143204FF440330848C0F88041D36004600B61FC
S3150801433010BD00BF00ED00E000200108009000500C
S3150801434000800044F7FF370000E100E0014B1868E0
S31508014350704700BFD80A0020084B1B6F03F00703FC
S31508014360022B04D0032B05D0012B05D0FEE7044B05
S3150801437018687047034BFBE70348704700800050F5
S31508014380D80A0020DC0A0020002D310108B5FFF704
S31508014390E3FF054B1B6FC3F303330133B0FBF3F0A4
S315080143A0024B186008BD00BF00800050D40A0020E7
S315080143B00048704700B4C404014B1868704700BF31
S315080143C0DC0A0020054B1860054B1B6F03F0070339
S315080143D0032B01D1FFF7DABF704700BFDC0A0020C3
S315080143E00080005000487047002D31014FF0B4435A
S315080143F09868C0F304400C2822D8DFE800F00921A8
S3150801440021212121071719211B1D1F000F4870475C
S315080144109B6803F04073B3F1807F13D0B3F1007F3B
S3150801442012D00B4A002B08BF10467047094870473F
S31508014430094870470948704709487047094870474D
S31508014440002070470848704708487047405DC60015
S3150801445000093D000024F400C0EA210180BA8C015C
S315080144600048E801005A620280841E0040420F009B
S31508014470014B1868704700BFE00A00204FF000633F
S315080144809B6A10B503F17842B2F5903F0ED21968CE
S31508014490094A91420AD1094C227812F0FD0F08D136
S315080144A0DB69984708B90123237010BD4FF4817061
S315080144B0FBE70020F9E700BF07B0CD5EC95400202D
S315080144C04FF00053074A1A60BFF34F8F0649074B4F
S315080144D0CA6802F4E0621343CB60BFF34F8F00BF93
S315080144E0FDE700BF02020FF000ED00E00400FA0547
S315080144F005490A681318054883428CBF4FF0FF32F5
S315080145000B601046704700BFE40A00200000042033
S315080145104FF0BA420123054802F580514B60086203
S3150801452003490968D160034A1370704701000C1FDB
S31508014530E80A0020CA5400204FF0BA41074BCA685E
S315080145401A600123064A53604B6813F00203FBD134
S315080145504FF0FF311162034A13707047E80A0020D1
S315080145600020005DCA5400204FF0BA42D169136A8F
S3150801457010B50B4013F0F8501EBF0120114A1070F8
S31508014580DC070ED54FF0BA410A695007FCD50E4A29
S315080145904C691068204410608869516801440120FB
S315080145A05160590341BF08490A6802F180720A60DD
S315080145B01A0341BF04494A6802F180724A60034AF4
S315080145C0D36110BDCB540020B03300200020005D1C
S315080145D00023044A04491370044A05481360054A2E
S315080145E000F0DEB8CB54002039450108A833002075
S315080145F0114501086945010808B500F037F94FF07A
S31508014600BA430549D8690A6803F5005302430A60A3
S315080146104FF47D32DA6108BDA833002038B5092385
S3150801462004460D460F4AC0F810311368013313606A
S3150801463000F01CF900F008F94FF48A7220460A497D
S3150801464000F0E6F865B100F011F94FF0BA43074AF0
S31508014650D96913680B4313604FF47D32044BDA6151
S31508014660002038BDAC3300206400005DA83300206B
S315080146700020005DF0B5BDF81850184E099F013DA0
S3150801468006EA0747C5F3090500EB01143D43A56290
S31508014690BDF81C500A9F013D06EA0747C5F30905FF
S315080146A03D43E562BDF814401D03013C05F4405540
S315080146B0C4F309042C43089D13F0040F06EA0546C2
S315080146C044EA060401F1020100EB011318BF44F4A0
S315080146D0804409015C604250F0BD00BF0000FF0F35
S315080146E0F8B500210C250446D0F8743200F50A768F
S315080146F0DFF854C0D0F868028B4217DA05FB0303CA
S3150801470093F8BB20002142F0800283F8BB20FFF713
S3150801471085FF4FF48A72D4F86C3283F00103C4F82A
S315080147206C3202FB0343C4F86832F8BD05FB010786
S31508014730D7F8B82056F804EB02EA0C0242EA0E0250
S31508014740C7F8B8200131D7E70000FFFF8B1E012B00
S3150801475003D8044B1B6823B11847012901D8024B1A
S31508014760F8E77047B8330020BC33002010B528F0AD
S31508014770F9F904460021012006F016FB204628F027
S31508014780F5F90022014B1A7010BD00BFCC54002068
S31508014790024B03C883E8030000207047CC3300208E
S315080147A038B5114C2378EBB9104B114D1960114BE3
S315080147B028601A604FF080420F4B10489A66FFF73F
S315080147C0E7FF4FF400420E4B1A602B6803B1984776
S315080147D00C480D4906F07AFB0123002023700B4B88
S315080147E0187038BD1220FCE7CD540020B8330020DC
S315080147F0BC330020C033002000900050CC33002089
S3150801480000E100E0C433002004FB0408CC54002076
S315080148100B4B10B51B7873B10A4B1B786BB1002390
S3150801482092089A4201D1002010BD50F8234041F860
S3150801483023400133F5E71120F6E70E20F4E700BF20
S31508014840CD540020CC54002010B528F08BF9012155
S315080148500446084606F0A8FA204628F087F90122F8
S31508014860014B1A7010BD00BFCC540020064B1B78B3
S3150801487043B14FF0BA4213695B07FCD5034A137873
S31508014880002BFCD1704700BFCD540020CC5400202A
S3150801489008B5054B1B682BB1984718B1BDE8084008
S315080148A0FFF764BF08BD00BFC0330020004870474A
S315080148B0D433002000487047D4330020F0B50124D2
S315080148C0884206D88C4204D800211460186008462C
S315080148D0F0BD0025DFF828C01CF8017BB0FBF7F610
S315080148E007FB160EBEF1000F05D1B04207FB04F413
S315080148F004D03046E4E701350B2DEDD10121E4E77B
S315080149000CFB04082DE9F04F174687B004460D46FF
S315080149109846FFF7CBFF17F1800F064606D1B8F187
S315080149207F0F03D1002007B0BDE8F08FA02D0ED868
S315080149302544A542F6D094F900309F4202DD27703E
S315080149400134F6E79845B8BF84F80080F8E74FF0D8
S31508014950000940F20A2A3B463A460021304627F02A
S3150801496090FD434642460121304627F08AFD4B46D3
S315080149704A4649463046CDE90199CDF800A027F0C7
S31508014980EBFD40F20B232F4A0121CDE900323046D7
S3150801499040F2D5122C4BCDF8089027F0DDFD012108
S315080149A02A4B40F2D512CDE9013130460221284B76
S315080149B0CDF800A027F0D0FDB5F5006F2B4628BF2E
S315080149C04FF4006323F0030B4FEA5B0A1FFA8AFAD6
S315080149D02246002130460593CDF800A0052327F08D
S315080149E099FD2246052301213046CDF800A027F07E
S315080149F091FD0223059A002130460093C2F38F02E6
S31508014A000123CDE9019927F0BCFDA5EB0B05012191
S31508014A103046FFF703FE9F2D5C44CDD845B12544AA
S31508014A2014F9013B9F4208DD04F8017CA542F7D140
S31508014A30FFF7E2FD074B187875E79845B8BF04F804
S31508014A40018CF3E70000A021000102200000B0213B
S31508014A5000010330CB5400202DE9F04F036895B0CF
S31508014A600593436A066D0693836A42680793C36A88
S31508014A70856B0893036ED0F814B00993C36DD0F80B
S31508014A803C900A938369DFED576A0B9383680BFBA6
S31508014A9001FA0C93036B0D93436C00694B43F41AAB
S31508014AA024EAE474F71A9B1B234453430744AF4291
S31508014AB0A8BF2F46019302FB05F3002502FB00F16F
S31508014AC0119302FB04F30E9713911293059B9D42D2
S31508014AD003DB002015B0BDE8F08F00200B9B129E6A
S31508014AE053440493584574DB0199139B01351944C2
S31508014AF0DA440191EAE74FF000080C9B73440293EC
S31508014B000D9B63440393904547DB013796449444D0
S31508014B100E9B9F42EFDBB9F1000F0BD039F810302D
S31508014B20F2EE677A07EE103AB2EE477A77EE277A0F
S31508014B30F3EE677A089BF2EE677A33F810300130A4
S31508014B4007EE103AB2EE477A67EE277AF3EE677AFE
S31508014B50F2EE677AFDEEE77A17EE901AADF80830AD
S31508014B60099B1944069B9942B8BF1946079B994266
S31508014B70A8BF194607EE901AF8EEE77AF3EE677AB8
S31508014B80F2EE677AFDEEE77A17EE901A049B03F8C0
S31508014B90011B0493119B1E44A4E7029BF2EE677A5C
S31508014BA013F9011B08F101080293039B0F9113F9ED
S31508014BB0011B109103930F990A9B1944109B5943A2
S31508014BC007EE101AB8EEC77A47EE267AF3EE677A39
S31508014BD099E740F20003B446274607EE903ADDF816
S31508014BE004E095E7000000382DE9F04F2DED068B1E
S31508014BF0436CD1B02993836D05463493436D90ED8B
S31508014C00178A3593036DD0F840801C93C36C90F8CE
S31508014C10487010938368C66B3693036B2F9137934D
S31508014C20C36A389340F20003ADF83A318369409379
S31508014C3000234F93FFF73EFE04462FB91C9B109A9B
S31508014C4013431CBF21234F93349B012B02D1359B60
S31508014C50012B01D021234F932F9B4BB1DDE936322E
S31508014C601343389A33431343DB0744BF21234F9336
S31508014C704F9B2293002B40F092806B6820460E933F
S31508014C806B69D5ED188A0B93EB68BAEEE88A2A9315
S31508014C906B6BB3EE488A1D93EB692B932B6839939B
S31508014CA02B691193AB6B12932B6A139327F056FD5D
S31508014CB01D9A2A9B002EA3EB0203109A134493FB19
S31508014CC0F8F34393DDE91132A3EB02031C9A13446B
S31508014CD0299A93FBF2F3139A44930B9B02FB03F372
S31508014CE0129A16930E9B02FB03F31793179A1D9BB1
S31508014CF002FB03F3119A2D930E9B02FB03F30E9A03
S31508014D002093299B02FB03F34593209B03FB08F39E
S31508014D104693209B03EBD3734FEA630349932D9B79
S31508014D2003EBD3734FEA63034A93179B03EBD373DE
S31508014D304FEA63034B93BDF82C30119A189308BFB9
S31508014D4001233F930DF59D7318BF33460AEE903A3A
S31508014D502A9B53430E9A5343139A4C932B9B5343C3
S31508014D600B9A53433E93229B0D9340F2002309EE7F
S31508014D70103A0D9B139A934217DB2F9B7BB1FFF7D2
S31508014D803BFC399B2B990B985943139B95F9242086
S31508014D90594395F928304143A869FFF7B3FD22988D
S31508014DA051B0BDEC068BBDE8F08F0D9B299A1C9975
S31508014DB05A431C9B1298D31A8A1A22EAE27214924F
S31508014DC0119A1499D21A9042D4BFC1EB0001C1EBD2
S31508014DD00201002B2DDB0D98449E129F9742D8BFE6
S31508014DE030462490249A0D98121A013209920E9A85
S31508014DF04A4314992C92349A01FB02333C932C9B17
S31508014E00099903EBD3735B104793DDE94532012911
S31508014E10D8BF1346289303EBD3735B10489300233B
S31508014E200A930A9B2B9A934206DB249B01330D9323
S31508014E309FE70D9A2492D5E70A9B109A08FB03F37C
S31508014E40991AD31A2A9A1D9823EAE373521A904299
S31508014E50D4BFC3EB0007C3EB0207002952DB0A994B
S31508014E6043981D9E9642D8BF01462591259A0A99CF
S31508014E70521A239201321592239A002A52D0099A7C
S31508014E80012A4FDDB8454DD03FDD4FF0010AA8EBA9
S31508014E90070B159A012A07DD0AFB08F20BEB070136
S31508014EA08A4201D028224F92159A12995245A8BFD3
S31508014EB052464192169A02FB0AF23A92149A01FB59
S31508014EC003220E994A4315993192099A012AD8BFA4
S31508014ED00A4692B231993D92379A0A4409EE902AC6
S31508014EE00A9A109902FB08F2521A359903FB012313
S31508014EF02E9300230F930F9B419A934217DB259B11
S31508014F0001338DE70A9A2592B0E797FBF8F208FB79
S31508014F10127B9246BBF1000FBBD002F1010AA8EB46
S31508014F200B0BB6E74FF0010A4FF0000BBCE70F9BDE
S31508014F30159A9342C4BF28234F93239B0F9A013393
S31508014F409B1A93FBFAF20AFB1233002B18BF0132A4
S31508014F50012A099B1E9200F02A82012B08DCBBF16B
S31508014F60000F01D028234F93CDF830B0199706E0EA
S31508014F70CDF830B00C9B1E9AFB18534319930C9B22
S31508014F802E9A013B002B3B93CCBF4FF4877300232A
S31508014F9011990AEE103A3C9B01FB02330E9A1399BA
S31508014FA053430A9A1A930F9B13440D9A01FB032341
S31508014FB00B9A5343219300232693269B399A9342AE
S31508014FC00ADB0F9B01330F932E9B43442E9392E7E3
S31508014FD0002319970C93D2E73A9BB3F5006F0ADBC6
S31508014FE0169B0AF1FF39B3F5006F01DB28234F93AE
S31508014FF0169B1B9303E04FF000093A9B1B931E9BDC
S31508015000209A09FB03334293219B002BBCBF28231B
S315080150104F930B9B002BBCBF28234F931B9B002B45
S31508015020BCBF28234F93179B13432D9A13432C9ADE
S315080150301343289A1343319A13431A9A134313F0C5
S3150801504001031F9300F08081289B209A30932D9BA2
S315080150503393179B32932C9B204627934D9227F027
S31508015060F1FA1F9B0126002B0CBF052301234FAA2A
S31508015070D4F8680206924D9ABDF89C100492309AAB
S3150801508002910392BDF86420309101923D9A1A99D2
S315080150900092369A05960A4400214D9327F0FBFAA9
S315080150A04FABCDE90563329BBAB20493339B0192A8
S315080150B00393309B19EE902A0293189B314600936D
S315080150C0D4F868024D9B27F0E6FA4FAB01933F9B54
S315080150D01AEE902A00930223D4F86802194627F09B
S315080150E013FB4FAB0193189B03210093389A0223B4
S315080150F0D4F8680227F008FB4FABCDE905630B9B93
S31508015100219904931B9B409A0393189B0A44029383
S31508015110BDF8243004210193BDF808310093D4F871
S315080151206802334627F0B7FAB0EE490A0021D4F8E7
S31508015130680227F0CDF91F9B002B40F00E81F0EE97
S31508015140480AB0EE480A3146D4F8680227F0CAF987
S31508015150B8EEE80A0026B3EE400A0221D4F868023E
S3150801516027F0B6F920460B994FAA27F037FA4FAB25
S3150801517041212046914A019300964EF62C4327F089
S315080151806DFA204609994FAA27F028FA20461E9952
S315080151904FAA27F023FA394620464FAA27F01EFAC6
S315080151A0204627994FAA27F019FA4FAB40F2CD119D
S315080151B02046CDE90063824A824B27F04FFA4FAB6E
S315080151C040F2D711804A2046CDE90063334627F0DD
S315080151D045FA204627F0AAFA02223146204627F048
S315080151E0C1FA02220121204627F0BCFA204627F0FF
S315080151F09DFA099B012B04DC01223146204627F042
S31508015200B1FA0C9B002B04DD02220021204627F06F
S31508015210A9FA1F9B002B40F0A8800C9B4A21023B50
S315080152201B934FAB01931F9B20460093674A1AEEC7
S31508015230103A27F013FA1B9B4FAE013B1F931B9B9A
S3150801524040F2CD11002B4FF04F6320460093604A80
S31508015250CCBF4FF487730023019627F0FFF9B9F104
S31508015260000F0FDD32464946204627F0B7F90022DE
S315080152702046CF2311460196009227F0EFF92046E2
S3150801528027F054FA4FF000094FAE4B46412120460C
S315080152904A4A0196CDF8009027F0E0F91F9B012BA9
S315080152A066D119463246204627F098F94B464A46B2
S315080152B049462046CDE9009627F0D0F9204627F041
S315080152C035FA02224946204627F04CFA204627F0AD
S315080152D02DFA02220421204627F044FA099B012BC4
S315080152E004DD01220021204627F03CFA204627F05A
S315080152F01DFA04222046114627F034FA01222046D7
S31508015300114627F02FFA04220221204627F02AFA0D
S3150801531004220321204627F025FA204627F006FA1B
S315080153204F9B002B41D12F9B13B12046FFF7D8F98C
S31508015330269B4C9A013326931A9B13441A933E9A39
S31508015340219B1344219338E6489B3093DDE9492391
S3150801535033934B9B3293479B7EE6B0EE480A314620
S31508015360D4F8680227F0B4F8F2E63B9B1B9362E790
S31508015370ACDD1B9B3246991E204627F02FF9324693
S315080153802046012127F02AF94A4649464B46204636
S31508015390CDE9009627F062F9204627F0C7F90222DF
S315080153A04946204627F0DEF988E72293F7E4012BE0
S315080153B07FF70EAE00230C93DCE500BF0000045016
S315080153C0060001600E7E080006070550000005501C
S315080153D0050302702DE9F04F2DED048B82468DB041
S315080153E0002800F0FB81C16A002940F0F781036AB1
S315080153F09FEDC79A13F0010F14BF4FF480624FF463
S3150801540000629A42C0F2E6800591FFF74FFADAE99F
S315080154100F7BDAED057AB8EEE78ABAF85030DAF892
S31508015420208008EE903A0BFB07F318F0010428EEEA
S31508015430098A054609EE103ADAF84C900599BFB281
S3150801544040F0CE8108EBD8764FEA6608C6F34F06D8
S31508015450CDE9007605232146DAF8002027F06AF817
S315080154601FFA8BF3009305230196DAF81820012118
S31508015470284627F05FF8DAF83020002A00F0A280E3
S31508015480BAF8343000930223194628461FFA8BF6D8
S3150801549027F040F8CDE900760123DAF83820032110
S315080154A0284627F047F8DFED9A0A0021B0EE600A90
S315080154B0284627F021F8F0EE480AB0EE480A0121FD
S315080154C0284627F019F8B0EE680A0321284626F07F
S315080154D0FFFF4A460421284626F0EAFF4FF0000955
S315080154E040F22D234A46494628460093CDE90199BB
S315080154F04B4627F031F8874B40F2D712012128464F
S315080155000093CDE90199844B27F026F840F2D7128A
S3150801551002212846CDE90199804BCDF8009027F064
S315080155201BF8002C53D14A2203212846CDE9014410
S315080155307B4B009427F010F84FF0040900244FF034
S31508015540010B784B5FFA89F940F2D712494628468A
S31508015550CDE9013B0094744B26F0FEFF23463A46FB
S3150801556021462846CDE90144CDF8009027F009F8EF
S3150801557042F20203324659462846CDE9009302947F
S31508015580234626F0FEFF022120231FFA88F2CDE9E1
S31508015590001328465B46029426F0F3FF594628462F
S315080155A0FFF73CF819EE101A9AF953309AF9522076
S315080155B0DAF83800FFF7A6F920460DB0BDEC048BE2
S315080155C0BDE8F08F0123594A009302235CE74FF0A7
S315080155D00309B3E70791FFF769F9DAED057AF8EEFA
S315080155E0E78ABAF85030054668EE898A08EE103A15
S315080155F0DAF83C30DAF84C20DAF820400893DAF881
S315080156004030F0EE490AB0EE490A07990692059329
S31508015610099426F071FFF0EE680AB0EE680A0121D6
S31508015620284626F069FF03212846B0EE480A26F0E7
S315080156304FFF04F0010604212846069A26F038FF92
S31508015640002E5FD14FF0050804EBD4746410204690
S315080156504FF480610BAB0AAAFFF730F9044600281C
S3150801566040F0BC802B4B014640F2D712CDE9010030
S3150801567000932846284B26F06FFF40F2D7120121E6
S315080156802846CDE90144254B009426F065FF002EF6
S315080156903BD102214A222846CDE90144204B0094F8
S315080156A026F05AFF0321002601271E4B40F2D71286
S315080156B02846CDE9013700961B4B26F04DFF3346A8
S315080156C031462846BDF82820CDE90166009726F01F
S315080156D058FF22233946CDE9007328463346BDF8DB
S315080156E02C20029626F04DFFCDE90666089B069A00
S315080156F093426FDC089905989AF9533041439AF910
S31508015700522055E74FF00108A1E70221CBE700BF78
S31508015710000000380E7E08000600016006070550E5
S31508015720000005500000D0230503045018FB0408A7
S31508015730DAF81830DAF800205B4408EE903ADAF81D
S3150801574030303244002B42D033F8173008EE103A85
S31508015750079B002107EB0309DAF8383028469944F4
S31508015760BDF82C3001370193BDF828300093434624
S3150801577026F0E0FEBDF82C3018EE902A0193BDF80C
S315080157802830012128460093434626F0D3FE0123FB
S315080157904A4600930321284626F0BCFEB0EE480A85
S315080157A00521284626F094FE01212846FEF736FFF4
S315080157B0099B9B44059BBB42BADC069B059A0133B0
S315080157C00693079B13440793099B1E448EE740F2F1
S315080157D00003BBE74FF0000B5F46EBE72124EBE63E
S315080157E01FFA88F6CDE900760123DAF8002026F0BB
S315080157F0A1FE1FFA8BF300930196012335E600BF3C
S3150801580058B1031F9FED137A0020DFED136A9FED50
S31508015810136A01EB4202914200D17047D3ED017A36
S31508015820F8EEE77A67EE877AF4EEE67AF1EE10FAA1
S3150801583003F104030CDCF4EE467AF1EE10FA48BFE4
S315080158402120F3EE677A17EE90CA21F802CBE2E738
S315080158502120F6E70000003800E07F4700E07FC717
S315080158602DE9F04F2DED048B0368C3B03293C3685D
S3150801587090ED098A1F930369D0ED088A0E9383690F
S31508015880D0F804A02A93C36990F838502093036C82
S3150801589028911293C36B0F93D0E90C932193C36A92
S315080158A02293836A239383682B9343692C9300235A
S315080158B04193FEF7FFFF04462DB9129B0F9A134336
S315080158C01CBF21234193289B33B1DDE92B321343B6
S315080158D0DB0744BF21234193419B1793002B3ED1FC
S315080158E0204626F03BFF239A1F9B9B1A0F9A1344C7
S315080158F093FBF9F3229A34930E9B9B1A129A13443B
S31508015900219A93FBF2F33593209B0AFB03F3159334
S315080159100E9B0AFB03F316930AFB02F33693169BB7
S31508015920169A09FB03F337930E9B09FB03F30AFB4C
S3150801593003F33C931F9B5343159A39932A9B53436D
S315080159403D93179B0B934DF6000309EE103A0B9BFB
S31508015950209A934209DB289B0BB1FEF74DFE179857
S3150801596043B0BDEC048BBDE8F08F219A0B9B2299BD
S315080159705343129A9A1A2492129AD31A23EAE37370
S31508015980249A13930E9B9B1A139A9942D4BFC2EB7E
S315080159900102C2EB03022D92249A002A1ADB359AD8
S315080159A00B9922989842C8BF0A461A920B9A1A9BD3
S315080159B09B1A03F10108DDE93632B8F1010FD8BFA8
S315080159C01346299300232A9A934206DB1A9B01332D
S315080159D00B93BCE70B9B1A93E8E709FB03F20F99B4
S315080159E0239D501A8A1A1F9922EAE272091A8D42D0
S315080159F0D4BFC2EB0505C2EB01050028099560DB9A
S31508015A003498239D8D42C8BF18461B901B99C91A05
S31508015A101891013110911899002962D0B8F1010F36
S31508015A205FDD0999894500F01D824CDD4FF0010BB8
S31508015A30A9EB01051099012907DD0BFB09F1099865
S31508015A402844814201D02821419110990BF1FF3058
S31508015A505945A8BF5946339115990F9E01FB0BF17C
S31508015A60B1F5006FB8BF00201E9001303A9010982A
S31508015A70B8F1010FC8BF404680B2309003FB09F068
S31508015A80801B0244249E139830440E9E06FB020294
S31508015A900AFB02F2209827920B9A03FB00230AFBC2
S31508015AA003F32693159BB1F5006FA8BF194600238A
S31508015AB01D910D930D9B339A934216DB1B9B013364
S31508015AC081E71B93A2E70999099891FBF9F109FB6B
S31508015AD011058B46002DADD001F1010BA9EB05058A
S31508015AE0A8E74FF0010B0025AFE70D9B109A9342EB
S31508015AF0C4BF28234193189B0D9A01339B1A93FB24
S31508015B00FBF20BFB1233002B18BF0132012A149248
S31508015B1000F0A181B8F1010F05DC0DB128234193ED
S31508015B20099B0A9505E00A95DDE909321344149A99
S31508015B3053431193149B3A9A53439BB23193269B31
S31508015B401993279B259300231C931C9B329A9342F6
S31508015B5080F27381002341E1099B119300230A9383
S31508015B60E8E7199A0C9B9B182F9344BF2823419366
S31508015B70BAF1000FBCBF282341931D9B259A002B20
S31508015B80BCBF282341930C9B9F180133534580F2D0
S31508015B903681169B4AEA0306299B1E431D9B1E4313
S31508015BA02F9B1E433E43F64306F00106731C3B93A7
S31508015BB09AFBF3F32E93169B721C93FBF2F2299B25
S31508015BC03F92721C93FBF2F11D9B204693FBF2F365
S31508015BD03E91389326F036FD002E0CBF012305238E
S31508015BE02E9AD4F8680205923F9A3E990492BDF816
S31508015BF0B42041AE0292BDF8442003910192309A35
S31508015C00002100922B9A06963A443E9326F043FDCC
S31508015C102E9B00270493389B1FFA88F203930123CE
S31508015C200293319B2C9901922F9A00930696059718
S31508015C300A443E9B0121D4F8680226F02CFD4DF654
S31508015C400003F0EE490A00EE103A3946D4F8680224
S31508015C5026F048FCF8EEE80AF3EE600A0321B0EEF6
S31508015C60600AD4F8680226F03DFCF8EEC80AF3EE9D
S31508015C70600A0421B0EE600AD4F8680226F032FC04
S31508015C8032464146204626F0A9FC3246204614995A
S31508015C9026F0A4FC3B464FF0805241212046CDE92F
S31508015CA0007626F0DBFC32462046099926F096FC5A
S31508015CB0324620462D9926F091FC40F20A2340F2FD
S31508015CC053116A4A2046CDE9007626F0C7FC2046DC
S31508015CD026F02CFD02223946204626F043FD2046B1
S31508015CE026F024FDB8F1010F04DC012239462046CD
S31508015CF026F038FD0A9B002B04DD022200212046EE
S31508015D0026F030FD0A9B41AA012BA3F102064FF0AA
S31508015D101D6340F2D511CDE900322046CCBF4FF4C0
S31508015D2085730023524A26F099FC1E9B002B1DDD24
S31508015D3041AF19463A46204626F050FC3A4601211B
S31508015D40204626F04BFC002320461A4619460093A6
S31508015D50019726F083FC204626F0E8FC012220461E
S31508015D60114626F0FFFC204626F0E0FC002E17DD42
S31508015D70012E41AA45D13146204626F02FFC0021A5
S31508015D8041AB01930A460B462046009126F066FC74
S31508015D90204626F0CBFC02220021204626F0E2FC12
S31508015DA0204626F0C3FC02220121204626F0DAFC11
S31508015DB0B8F1010F04DD01220021204626F0D2FCAC
S31508015DC0204626F0B3FC419B002B42D1289B13B1F8
S31508015DD02046FEF785FC0C9B3B9A13440C930C9BBF
S31508015DE05345FFF6BEAE1C9B399A01331C93259B7E
S31508015DF0134425933D9A199B13441993A5E6002646
S31508015E00D4E60A9B2046D91E26F0E8FB204641AA7D
S31508015E10012126F0E3FB002141AB0A460091204609
S31508015E2001930B4626F01AFC204626F07FFC022237
S31508015E300021204626F096FCAAE70D9B3C9A0133E1
S31508015E400D93279B13442793159A269B1344269350
S31508015E5030E6179383E5B8F1010F7FF77DAE00238E
S31508015E600A9361E600254FF0010BEEE502000110E9
S31508015E700304015010B40A681378022B11D01420B8
S31508015E803023147913FB040307481B585079C34080
S31508015E90DB4303F00103137008465DF8044BFDF775
S31508015EA0AFB95DF8044B704730C0035037B5046885
S31508015EB0012105463A2000F0F3FE0023012261790B
S31508015EC0207902F039F814223023217913FB0123B2
S31508015ED00E4A9B586279D340DB4303F001032370D2
S31508015EE0A379022B0ED100F099FB2A46084960795D
S31508015EF000F0BEFB0123024661792079CDE9003322
S31508015F0001F0C2FF002003B030BD00BF30C003500E
S31508015F10755E010802681378022B24D014213023F8
S31508015F20107913FB001310495B585179CB409179CD
S31508015F3003F00103012912D1508843EA40034FF6C1
S31508015F40E07063F03F039BB2834202D11170538024
S31508015F5070474FF6DF718B42F9D10021F6E711B987
S31508015F6083F001031370704730C0035010B5012147
S31508015F703A2000F095FE012304220321002001F0B6
S31508015F80DBFF002026F069FE0122314B3149C3F8B7
S31508015F9044244FF40022A3F550335A66D1F8FC2065
S31508015FA02C4C12F080721EBFD1F8FC3023F080739E
S31508015FB0C1F8FC302849D1F8803023F0030343F0B7
S31508015FC00203C1F880302AB1D4F8FC3043F080735B
S31508015FD0C4F8FC304FF4607000F07EFED4F8F0305F
S31508015FE01E4A43F00103C4F8F030D4F8FC3000F53A
S31508015FF0D52043F08073C4F8FC30194B00F2FC40FD
S315080160001A60184B0222B0FBF3F0174B01381861DE
S31508016010C3F8F0204FF48072C3F804234FF06043AD
S31508016020124A0020C3F8B02F114AC3F8802ED3F8BC
S31508016030002E42F48072C3F8002EFF2283F8202036
S31508016040D3F8002E22F48072C3F8002E10BD00BFCB
S3150801605000D0035000ED00E000800050FF0300402F
S31508016060001000E0F8590D00000004E055CEACC55B
S31508016070090001004FF06043D3F8802E30B5D207EE
S3150801608015D501240B4D8440D5F8FC2042F08072C9
S31508016090C5F8FC20D3F8002E2243C3F8002E53F886
S315080160A02020002AF0D003F82010002030BD11204E
S315080160B0FCE700BF00ED00E010B501224378017846
S315080160C0847830209A40054B00FB01331CB903F54F
S315080160D001531A6010BD03F58253FAE700C0035055
S315080160E010B5012243780178847830209A40054B0F
S315080160F000FB01331CB903F582531A6010BD03F581
S315080161000153FAE700C003500122437801789A4007
S3150801611030235943014B5A50704700BF40F0035092
S31508016120102130230246007813FB001305495078E5
S315080161305B58C34003F0010093780BB980F0010066
S31508016140704700BF30C003502DE9F04F9A46564BB1
S3150801615085B01B7806460F461546DDF83C909DF836
S3150801616044B0DDF85080002B00F08D80072A00F23C
S315080161708C800E9B002B00F08880B9F1000F00F08F
S315080161808480129BB3F5006F7FDC012802D1109B36
S31508016190002B7AD0454B03EB05131B7B002B76D0DE
S315080161A0434C10220021684635F08EF804EB45145D
S315080161B01022002F59D13946204635F085F843F289
S315080161C010036380BBF1000F03D1E37843F00303A7
S315080161D0E370374A0E9B02EB451CCCE90193129BEF
S315080161E06901013BC3F30A009DF84C30012E03F007
S315080161F003034FEA836343EA001E53582D48CDF83B
S3150801620000A000EA03004EEA0003535041D11323CC
S315080162100CF1100ECCF80C309CE80F008EE80F003C
S315080162206FF00301DCF81C20109B61F39F02012F1C
S31508016230CCF81C20CCF8143003D1CCF81890CCF843
S3150801624004300027194A290102EB051342F8018097
S31508016250159A28465A60694622469F605E7301F080
S3150801626009FF384605B0BDE8F08F0021204635F014
S315080162702BF84FF444736380BBF1000FA9D1E3787F
S3150801628043F03003A4E70C48ECE70C48EAE70C486E
S31508016290E8E7B8F1000FD4D19CF8023068F304138B
S315080162A08CF80230CDE700BFCE54002050360020CE
S315080162B0D03600200F80FFF3028000F0018000F045
S315080162C0078000F038B5124B05461B78DBB1E0B103
S315080162D026F04FFC0F4A00231146147B54B92B6054
S315080162E001251A0101EB03131D738C5026F047FC97
S315080162F0204638BD0133082B02F11002EDD126F0F4
S315080163003EFC0548F5E70548F3E70548F1E700BF10
S31508016310CE54002050360020048000F0028000F0A0
S31508016320018000F013B526F024FC00230B4A147BE8
S315080163307CB90133082B02F11002F8D1019001F062
S315080163403BFE074B01981C7026F019FC204602B04B
S3150801635010BD26F014FC0348F9E700BF50360020AB
S31508016360CE540020058000F00D4B10B51B7804466D
S3150801637093B1072812D826F0FCFB0A4B03EB04134A
S315080163801A7B2AB100241C7326F0F9FB204610BD9E
S3150801639026F0F5FB0448FAE70448F8E70448F6E767
S315080163A0CE54002050360020068000F0028000F00E
S315080163B0018000F0154B13B51868002301908DF87C
S315080163C0043026F0D6FB124B1C7824B126F0D7FBF5
S315080163D0104802B010BD01221A7026F0D0FB0E4BF0
S315080163E001A81C731C7783F82C4083F83C4083F87A
S315080163F04C4083F85C4083F86C4083F87C40082362
S315080164008DF8073001F004FE2046E2E71AFB04087E
S31508016410CE540020038000F0503600200A4A08B501
S3150801642012785AB107280BD8084A02EB00131B7BCE
S3150801643043B1002101F0DEFD002008BD0448FCE758
S315080164400448FAE70448F8E7CE54002050360020FD
S31508016450028000F0018000F0078000F00A4A08B5C2
S3150801646012785AB107280BD8084A02EB00131B7B8E
S3150801647043B1012101F0BEFD002008BD0448FCE737
S315080164800448FAE70448F8E7CE54002050360020BD
S31508016490028000F0018000F0078000F00A4A08B582
S315080164A0127852B107280AD8084A02EB00131B7B57
S315080164B03BB101F02DFE002008BD0548FCE7054863
S315080164C0FAE70548F8E700BFCE5400205036002009
S315080164D0028000F0018000F0078000F00D4B1B7868
S315080164E093B1072812D889B10B4B03EB00131B7B19
S315080164F073B10A4B1A6D012303FA00F010401ABF53
S3150801650000200B70087070470548704705487047AA
S3150801651005487047CE54002050360020000004502C
S31508016520028000F0018000F0078000F00B4A10B5E8
S3150801653012780C4662B107280CD859B1084A02EB01
S3150801654000131B7B43B101F0F5FD2070002010BD3F
S315080165500448FCE70448FAE70448F8E7CE54002063
S3150801656050360020028000F0018000F0078000F01C
S315080165702DE9F843174B1F6D5B6D1F4000D5FEE7EC
S3150801658001260025144CDFF85480DFF85490374271
S3150801659017D02368C8F850609BB1A1682846013115
S315080165A06268A1609847637B012B0AD148B909EB58
S315080165B045131A7B60F341021A731A7F60F341028D
S315080165C01A770135082D4FEA460604F11004DED183
S315080165D0BDE8F8830000045050360020002004501E
S315080165E0D036002070B5044601250B4E04B970BD9E
S315080165F094FAA4F0B0FA80F005FA00F306EB00125B
S3150801660024EA03045368002BF0D0117B11B1916879
S315080166109847EBE79847E9E7D037002008B51920EE
S3150801662001F002F828B14FF00072074BC3F8802138
S315080166301A601A2000F0F8FF28B14FF08062024B69
S31508016640C3F880211A6008BD00E100E038B50546A7
S315080166500C4626F08EFA0022044B03EB05135C6008
S315080166601A73BDE8384026F08ABA00BFD037002031
S31508016670F8B505460F46164626F07BFA104B05F087
S31508016680FC02D3F824140023EC1804F00304144381
S3150801669021FA04FC1CF0010F07D00133042BF3D1B6
S315080166A0FF2426F06CFA2046F8BDFF2CF9D001220A
S315080166B0044B03EB0413C3E901761A73F1E700BF30
S315080166C000C00350D0370020074BD3F82404D3F871
S315080166D0202403F50053104000F0553020F05020D7
S315080166E0C3F82004FFF77EBF00C00350074BD3F859
S315080166F02404D3F8202403F50053104000F0AA30EF
S3150801670020F0A020C3F82004FFF76CBF00C0035097
S31508016710024B1968024B18681BF0C4BBF00A00202B
S31508016720EC0A002037B5920004460D46019234F072
S315080167309FFF431C0BD060B929462046019A34F0C5
S315080167408CFD0028044808BF002003B030BD03486B
S31508016750FBE70348F9E700BF10E000F021E000F08D
S3150801676024E000F010B5044634F07AFF431C10D03B
S3150801677088B901F071FD234620F0030020449842B0
S3150801678001D1002010BD53F8042B0132F7D003487C
S31508016790F8E70348F6E70348F4E700BF0EE000F020
S315080167A021E000F024E000F008B526F0DBF9014B02
S315080167B0186008BD10400020014B186826F0D6B9AC
S315080167C010400020044BD3F88420D206FBD4D3F81A
S315080167D08400C0F3811070470040005038B5104B53
S315080167E00546D3F880300C4603F00303022B0BD081
S315080167F0032B0DD0012B0FD1FDF7AEFD0E2305B1ED
S31508016800286004B1236038BDFDF7F0FD0723F6E7DC
S31508016810FDF79CFD0623F2E700231846EFE700BFC4
S315080168200080005038B5184B0546D3F820010C46B0
S3150801683000F00700062805D8DFE800F0230B0F173C
S31508016840131B1F000023184605B1286004B12360F5
S3150801685038BDFDF77BFD0523F6E7FDF7ADFD0323FF
S31508016860F2E7FDF7C3FD0723EEE7FDF7BBFD0223BC
S31508016870EAE7FDF76BFD0623E6E7FDF79DFD042331
S31508016880E2E70123E0E700BF0080005038B5174B67
S315080168900546D3F828310C4603F00703013B052BBF
S315080168A020D8DFE803F003131B0F0B17FDF74EFD86
S315080168B0052305B1286004B1236038BDFDF746FDFF
S315080168C00623F6E7FDF792FD0723F2E7FDF774FDC8
S315080168D00323EEE7FDF770FD0423EAE7FDF782FDE2
S315080168E00223E6E700231846E3E700BF00800050CD
S315080168F073B50D460021114B0191D3F88041064627
S3150801690004F00304022C13D0032C0CD0012C13D150
S3150801691001A8FFF787FF10240EB1019B336005B16B
S315080169202C6002B070BDFDF761FD07240190F3E705
S31508016930FDF758FD0190EFE70C46EDE700800050A2
S31508016940002337B50193164B0546D3F820320C467A
S3150801695003F00703042B04D8DFE803F0200B111614
S315080169601B0000230DB1019A2A6004B1236003B00C
S3150801697030BD002101A8FFF789FF1223F2E7FDF7D1
S3150801698035FD07230190EDE725F064FD0A23019003
S31508016990E8E7FDF76DFD09230190E3E70123E1E748
S315080169A00080005038B5104B0546D3F840310C46E7
S315080169B003F00303022B0BD0032B0DD0012B0FD1B0
S315080169C025F048FD0A2305B1286004B1236038BDC6
S315080169D0FDF74EFD0923F6E725F03FFD0C23F2E707
S315080169E001230020EFE700BF00800050002337B5E0
S315080169F00193164B0546D3F860320C4603F007039C
S31508016A00013B032B1FD8DFE803F0020E19140021FE
S31508016A1001A8FFF707FF10230DB1019A2A6004B1F7
S31508016A20236003B030BD002101A8FFF7BBFF112386
S31508016A30F2E7FDF7DBFC07230190EDE7FDF7D2FC52
S31508016A4002230190E8E70023E6E700BF0080005033
S31508016A50002337B50193164B0546D3F894320C46F5
S31508016A6003F00703013B032B1FD8DFE803F0020EEF
S31508016A701914002101A8FFF7D5FE10230DB1019ABB
S31508016A802A6004B1236003B030BD002101A8FFF7D5
S31508016A9089FF1123F2E7FDF7A9FC07230190EDE72A
S31508016AA0FDF7A0FC02230190E8E70023E6E700BF13
S31508016AB00080005038B5144B0546D3F800020C4641
S31508016AC000F00700042804D8DFE800F01B0A0E12BC
S31508016AD016000023184605B1286004B1236038BDA5
S31508016AE025F0B8FC0A23F6E7FDF7C2FC0923F2E70D
S31508016AF025F0B3FC0C23EEE7FDF748FC0F23800ACB
S31508016B00E9E70123E7E700BF0080005038B5144BD9
S31508016B100546D3F808020C4600F00700042804D8F5
S31508016B20DFE800F01B0A0E1216000023184605B10D
S31508016B30286004B1236038BD25F08CFC0A23F6E7EA
S31508016B40FDF796FC0923F2E725F087FC0C23EEE70F
S31508016B50FDF71CFC0F23800AE9E70123E7E700BFDD
S31508016B600080005038B5104B0546D3F840320C4624
S31508016B7003F00303022B0BD0032B0DD0012B0FD1EE
S31508016B8025F068FC0A2305B1286004B1236038BDE5
S31508016B90FDF76EFC0923F6E725F05FFC0C23F2E707
S31508016BA001230020EFE700BF0080005038B5104BE5
S31508016BB00546D3F860310C4603F00303022B0BD0CC
S31508016BC0032B0DD0012B0FD125F044FC0A2305B167
S31508016BD0286004B1236038BDFDF74AFC0923F6E7AE
S31508016BE025F03BFC0C23F2E701230020EFE700BF69
S31508016BF000800050B0F5207F1FD009D8B0F5007F7E
S31508016C0015D003D868B1B0F5C07F0AD000200CE0D2
S31508016C10B0F5607FFAD10B4BD3F88000C0F30110B1
S31508016C2003E0084B186FC0F3033001307047054B7A
S31508016C30D3F89000C0F30460F7E7024B186FC0F36E
S31508016C408020F2E70080005002464FF48030104B56
S31508016C5010B598660020FFF7CDFF504341F6713213
S31508016C600C4BDC69DA635A6804F4803422F4401266
S31508016C7059B9094988428CBF4FF480100020104346
S31508016C8058600CB10022DA6310BD0449F2E700BF6F
S31508016C900090005000000350005A6202002D310195
S31508016CA0430905D0012B0DD0022B094B18BF002330
S31508016CB000F01F0041B103F58053012202FA00F0EA
S31508016CC018607047034BF3E703F50053F5E700BF78
S31508016CD068800050648000501FB500218028044652
S31508016CE0CDE9001100F0A58035D85E2846D85E2882
S31508016CF044D8DFE800F0A2434343434343434343B5
S31508016D004343434343434343434343434343434344
S31508016D10434343434343A2AAA2AAB9B9B9B9B9AAF3
S31508016D20C34DD9714DAAAAAA434343434343434397
S31508016D30AAAAAA79E3AA43434343434343434343A2
S31508016D40434343B9A2A2A2DE4D4DE8885EBE434342
S31508016D5043434399A200B0F5B06F00F08F802DD858
S31508016D60B0F5207F71D00CD8B0F5C07F65D0B0F5ED
S31508016D70007F65D0B0F5807F00F08580009804B06B
S31508016D8010BDB0F5607F6AD00DD8B0F5407FF5D15A
S31508016D90FDF7FCFA02464FF42070FFF72BFFB2FB12
S31508016DA0F0F0400847E0B0F5806F5DD0B0F5A06F10
S31508016DB0E4D100216846FFF7C3FDDFE7B0F5106FA0
S31508016DC077D016D8B0F5E06F78D00AD8B0F5C06F8D
S31508016DD06AD0B0F5D06FD1D100216846FFF76AFEB7
S31508016DE0CCE7B0F5F06FC9D100216846FFF7DEFEA2
S31508016DF0C4E7B0F5406F3CD013D8B0F5206F62D028
S31508016E00B0F5286FBAD10021314B0391D3F870320E
S31508016E1003F00303012B02D103A8FFF7C3FD039B6C
S31508016E203BE0B0F5486FA9D100216846FFF710FE8F
S31508016E30A4E7FDF791FA0090A0E7FDF7A7FAFAE7AC
S31508016E40FDF78AFA0246204604E0FDF79FFA024654
S31508016E504FF42070FFF7CEFEB2FBF0F0EBE701A886
S31508016E60FFF7BCFC019AEEE700216846FFF7DAFC5A
S31508016E7084E700216846FFF709FD7FE70021684698
S31508016E80FFF736FD7AE74FF0E02302911B695B07AE
S31508016E9005D5FDF77BFA0290029B00936EE703A9DD
S31508016EA002A8FFF77FFDF7E700216846FFF77AFD9D
S31508016EB064E700216846FFF729FE5FE70021684677
S31508016EC0FFF750FE5AE700216846FFF78FFD55E7A1
S31508016ED00080005008B58020FFF7FEFE034B98425C
S31508016EE09EBF4FF48032024B1A6708BD005A6202F0
S31508016EF000A000501FB50023B0F5807F019300F074
S31508016F00C38064D85D2855D84C2807D82D2847D87A
S31508016F1023282BD8019805B05DF804FB4D381028B5
S31508016F20F8D801A353F820F07F700108156F0108FE
S31508016F30156F0108156F010831700108156F0108F1
S31508016F40156F0108057101084F700108F56F0108F1
S31508016F50FB700108156F0108156F0108156F010807
S31508016F60156F0108156F01080F71010824380928E2
S31508016F70D0D801A353F820F07F7001087F7001086B
S31508016F807F7001087F7001087F700108156F01087D
S31508016F9075700108156F010811700108B5700108AF
S31508016FA03D2800F082803E28B4D1002001A9FFF7D0
S31508016FB0D9FDAFE78028ADD15A4B1B6F03F0070304
S31508016FC0013B032BA6D8DFE803F05350878FB0F5B2
S31508016FD0F06F6AD021D8B0F5B06F4BD00FD8B0F5A5
S31508016FE0607F00F0858095D3B0F5806F47D0B0F506
S31508016FF0A06F8FD1002001A9FFF7A2FC8AE7B0F59F
S31508017000D06F57D0B0F5E06FCFD0B0F5C06F81D152
S31508017010002001A9FFF7C6FC7CE7B0F5206F71D007
S315080170200BD8B0F5086F4AD0B0F5106F7FF472AF80
S31508017030002001A9FFF76AFD6CE7B0F5406F5CD047
S31508017040B0F5486F63D0B0F5286F7FF463AF0021C0
S31508017050344B0391D3F8703203F00303012B5BD051
S31508017060022B14BF0B46152300E00523019351E7B4
S315080170700223FBE7002001A9FFF73AFC4AE70020B3
S3150801708001A9FFF7CFFB45E702934FF0E0231B6900
S315080170905B0705D5FDF77AF90D230393039BE5E70E
S315080170A003A902A8FFF77EFCF8E7002001A9FFF76C
S315080170B07DFD2FE7002001A9FFF7FCFC2AE7194B04
S315080170C0D3F8003103F00303022B07D0032B09D0B1
S315080170D0012B0BD1FDF770F90323C7E7FDF7C8F9B3
S315080170E00923C3E725F0B4F90823BFE70123BDE760
S315080170F0184601A9FFF772FB0CE7002001A9FFF763
S31508017100C5FB07E7002001A9FFF770FC02E700208D
S3150801711001A9FFF79DFCFDE603A8FFF743FC112330
S31508017120A4E700BF008000504FF48012034B5A6653
S315080171304FF48032024B9A62704700BF00900050AC
S315080171400050005A08B5FFF7D5FE092811D00A38AC
S31508017150012811D84FF48002094B4FF6FF705A6681
S3150801716003F5D8335B6A13F0010F18BF4FF4FA70B1
S3150801717008BD044B1888FBE74FF6FF70F8E700BF18
S3150801718000900050F80C002038B504468020FFF71F
S31508017190B1FE032800F08A804FF48012544B4FF059
S315080171A0A0615A6645F60E03524AC2F88030524B20
S315080171B099624FF4803103F580539962936DD9032F
S315080171C0FCD4916D11F08041FBD1D4E900031B0574
S315080171D043EA0063E07B0343207B43EA0043607B89
S315080171E043EA0033A07B43EA801313619069D4E92B
S315080171F004531B0643EA856300F000400343A07E5F
S31508017200E57E0343207E43EA0043607E43EA00238A
S315080172109361E069136A00280CBF0022082223F053
S315080172200F0343EA000343EA850343EA0203314AAB
S31508017230324D13623BD194F82430916A94F82000B8
S31508017240DB000D4043EA401394F821102B4343EA2F
S31508017250011343F480339362294B916D33EA01019B
S31508017260FBD14FF08071244881621369A56823F424
S31508017270700343EA055313614FF00043836194F8A1
S3150801728022300BB91F4B996294F823303BB94FF45E
S3150801729080321C4B9A62174A936D5B00FCD494F8B2
S315080172A025301BB1134B184AC3F8802038BD022874
S315080172B008D11161154891614FF408524FF47F4185
S315080172C025F017FC0B4994F822308A6A94F82000B5
S315080172D01B06154043EA401394F824202B4343EA3E
S315080172E0C20394F8232043EA02438B62D7E700BF1F
S315080172F0009000500040005A0050005AC7FFFEFE99
S31508017300030001000060005AF1A7FFFF3440005A4C
S3150801731037B5194CA26AA36D13F4803F18BF4FF411
S315080173208031164B18BF99624FF080719962144BE0
S31508017330A56993F9003025F47F050344000280B25C
S3150801734025F47F4583F30803284340EA0340A061F7
S315080173500C48019225F0CDFBA36D019A13F4803FE9
S3150801736007D04FF48031074803B0BDE8304025F017
S31508017370C0BB03B030BD00BF0040005A0050005AE0
S31508017380140D00202840005A014B93F9000070475C
S31508017390140D00204FF480300E490F4B8A6A98620B
S315080173A0886D00F003000328FAD14FF080709862C7
S315080173B0896D01211965074B996D8907FCD4996D6A
S315080173C08807FCD5996D8907FCD50449044825F039
S315080173D090BB00BF0040005A0050005A000001014E
S315080173E02840005AF0B5D0E901434FF400061A4A7D
S315080173F04178057856664FF4D156022702F5B83218
S315080174005662164E4F2977604FF0010728BF4F2164
S3150801741006F5805677601669F603FCD441EA05211C
S3150801742051611B01417B43EA04230B43017B43EA78
S3150801743041039360C37B817B1B0143EA4113417C72
S315080174400B43017C43EA41035360837C13B16FF418
S31508017450D1535362F0BD00BF009000500010025096
S31508017460014B1880704700BFF80C0020014B1880AB
S31508017470704700BFF60C00204FF4800208B5184B80
S315080174805A660223174A5360936813F48033FBD173
S31508017490012822D1FCF790FF134B984215D003F52A
S315080174A0122303F5F863984213D0104B00EB8002C0
S315080174B0400AB3FBF0F0520A0A4BDA62012218635A
S315080174C05A620022074B5A6008BD45F67A10084AE7
S315080174D0F2E745F61A00074AEEE75362F1E700BFFD
S315080174E0009000500040025000F04902646666664A
S315080174F0D8B80500BBCF0500B0F5207F10B50C46FE
