S01C000062745F736F635F77616E64795F62726432363031622E7333371A
S31508012000C00A0020394501081FEC03081FEC030824
S31508012010F30804081FEC03081FEC03081FEC030868
S315080120201FEC03081FEC03081FEC03081FEC030849
S315080120301FEC0308C409050865E303081FEC030838
S315080120401FEC03081FEC03081FEC03081FEC030829
S315080120501FEC03081FEC03081FEC03081FEC030819
S315080120601FEC03081FEC03081FEC0308F5360108EB
S315080120706DE403081FEC03081FEC0308514B010824
S315080120801FEC03081FEC03081FEC03081FEC0308E9
S315080120901FEC03083D6901081FEC03081FEC030840
S315080120A01FEC03083D6B0108196B01081FEC0308B7
S315080120B01FEC0308057E0308918803082B9E040874
S315080120C0279E040839800308379E04082F9E0408B2
S315080120D069880308339E0408D18803083D890308E3
S315080120E01FEC03081FEC03081FEC03081FEC030889
S315080120F0430504081FEC03081FEC03081FEC03083B
S315080121001FEC03081FEC03081FEC03081FEC030868
S315080121101FEC03081FEC03081FEC03081FEC030858
S315080121201FEC03081FEC03081FEC03081FEC030848
S315080121301FEC03081FEC03081FEC03081FEC030838
S315080121401FEC03081FEC03081FEC0308890A04089F
S315080121509D6603081FEC0308BD9A0408C39A040880
S315080121601FEC03081FEC03081FEC03081FEC030808
S31508012170013800D0FCE77047D0B51BA7D7E900673F
S315080121802DED028B04469FED1A8AD4ED007AF4EE02
S31508012190C87AF1EE10FA0EDA13A7D7E900679FEDB0
S315080121A0158AD4ED007AF4EEC87AF1EE10FA0ED457
S315080121B0BDEC028BD0BD17EE900A29F087FA32469C
S315080121C03B4629F023F929F09BFD2060DDE717EE50
S315080121D0900A29F07BFA32463B4629F019F929F08B
S315080121E08FFD2060DDE700BF182D4454FB211940FF
S315080121F0DB0F4940DB0F49C038B50022164B51ECBD
S31508012200100B29F0BBFA10A3D3E9002304460D46A7
S3150801221029F044FD70B90EA3D3E9002320462946C7
S3150801222029F01EFD58B9204629462AF09FF800EEE6
S31508012230100A38BD47F6FF3300EE103AF9E74FF6B4
S31508012240FF33F9E7AFF300800000000000FCEF4020
S315080122500000000000FCEFC00000E04000000000A4
S31508012260002370B5404C05468AB0E36318B100886F
S31508012270236011F015FF3D4837F04EF93C4E3D4BB2
S31508012280304633603C4B736032F02DFE00213046F8
S315080122901FF060FD32A3D3E90023A062C4E9062337
S315080122A032F02CFED4E9062319431043C4E906018A
S315080122B0CDE900014FF0FF334FF0FF32A06A37F046
S315080122C078F902224FF0FF31A06A37F077F9012039
S315080122D011F068FC4FF4007300222849A06A37F010
S315080122E0BEF9B0F5007F38D100239422CDE9073332
S315080122F009933C23CDE9033205939623A06A03A9E2
S3150801230006931FF045FE35B3287C12F081F8054681
S31508012310F0B9A06A37F084FA12F028F811F024FC13
S3150801232020B14FF4807000210EF03CFA11F02CFC1C
S3150801233020B14FF4006000210EF034FA32F0A2FE0B
S3150801234001201FF05BFD0E4A0E49A06A32F0C9FD55
S3150801235028460AB070BDFF20D7E70725F8E700BF72
S315080123600DD5015520000000702F0020690345ECAA
S3150801237054490020293A020864490020544700209C
S315080123808B4E0408CB4E04082DE9F74F0446DDE9C8
S315080123900C7B886816469A460D4629F097F98046B9
S315080123A0B068894629F092F902460B4640464946E5
S315080123B029F0E4F980468946BAF1000F1BD0DAF80C
S315080123C0080029F083F902460B464046494629F09A
S315080123D01DF88046B86821F0004929F077F90246C8
S315080123E00B464046494629F0F3FA12A3D3E90023DE
S315080123F029F040FC50B13B46324629462046CDF8E5
S3150801240030B003B0BDE8F04F26F062BC064B20465B
S315080124100093656940F24513044A0549A847012016
S3150801242003B0BDE8F08F00BF67680508B467050803
S31508012430F81D05087B14AE47E17A943F00000000B9
S315080124402DE9F84F4FF000432DED028B23FA00F0EA
S3150801245057EC106B59EC118B93468A4629F024F9EF
S31508012460424604460D464B463046394629F086F91A
S3150801247002460B462046294629F080F902460B46B4
S3150801248043EC182B0AA3D3E9002329F007FC08B16A
S315080124909FED078B59465046B0EE480AF0EE680A9A
S315080124A0BDEC028BBDE8F84F26F05EBEAFF30080A7
S315080124B00000C0FFFFFFDF412DE9F0432DED028B40
S315080124C099460B7F89B0072B04460F461546129E7F
S315080124D01AD140F20241836B984740B9AC4B00933D
S315080124E0272365692046AB4AAB49A84799E0B062FC
S315080124F040F202412046A36B984720B9A74B0093A7
S3150801250065692B23EEE7F0622A7F3B7F072A08D10C
S31508012510092B3DD0072B13D0A14B009365693123B5
S31508012520E0E79A4234D0CDE902329E4B01939E4BA5
S315080125300093342365692046964A9C49A84770E06A
S31508012540D5F80C80B8F1000F09D00023CDE9028334
S31508012550974B0193974B009365693923EBE74146FE
S31508012560DFED950A47F6FF709FED940AB36A944A20
S3150801257028F024F8F36A4146DFED8F0A9FED910AA8
S31508012580914A924828F01AF8EB68F361AB6833620E
S3150801259097F81C80B8F1090F45D0B8F1070F40F03C
S315080125A03781FB684BB10022CDE90232804B01939A
S315080125B0874B009365695B23BDE7EA6842B1CDE9BC
S315080125C002237B4B01937B4B009365695C23B2E73E
S315080125D0DFED807A95ED027AB4EEE77AF1EE10FA3C
S315080125E0DFED7D6ACCBF77EE677A77EEC77AF4EED0
S315080125F0E67AF1EE10FA7EDD4FF07C53002217EEF3
S31508012600100ACDE9042329F061F8744BCDE90201DA
S315080126100193734B00935D23656920465D4A7149B1
S31508012620A847012086E0287F072832D1EB6813F5F1
S31508012630004F09D0654ACDE902326B4B01935D4BD8
S3150801264000936569622376E7DFED687A95ED027A8C
S31508012650B4EEE77AF1EE10FADFED656ACCBF77EEF4
S31508012660677A77EEC77AF4EEE67AF1EE10FA66DD66
S315080126700022604B17EE100ACDE9042329F026F84B
S315080126805D4BCDE902010193554B009365696323BF
S31508012690C3E7092812D0666926F0DEFA05464046E0
S315080126A026F0DAFA554BCDE9025001933D4B0093DA
S315080126B066232046374A5249B047B2E7EB6813F119
S315080126C0800F0AD06FF07F02CDE902324D4B01939C
S315080126D0384B0093656967232DE795ED027ADFED9F
S315080126E04A7AB4EE677AF1EE10FA28D0474B00938E
S315080126F065696823F6E6B86828F0E8FF0446D9F85C
S3150801270000000D4628F0E2FF02460B462046294600
S3150801271029F034F81CA3D3E9002329F059F906F165
S31508012720080841EC100B404607A926F0D5FC079B83
S31508012730F360002009B0BDEC028BBDE8F083B868F0
S3150801274028F0C4FF41EC180BD9F8000028F0BEFFA9
S3150801275006F1080441EC100BB0EE481AF0EE681ABF
S315080127602146052007AAFFF76BFE07991F22F1608C
S31508012770052037F065FC28F097FF01F1004129F0A3
S3150801278097FAB061D5E700BF140014001400243F7E
S31508012790647B0508E77A0508F81D05087B7B0508AB
S315080127A00B690508537A0508607A0508651E050848
S315080127B0656805089E7B050880000038A000203959
S315080127C0D9A3040880008037CBA304080080FFFF43
S315080127D0B87B0508000000386F120333F17B050842
S315080127E0FD7B0508D17B0508127C050800008037AA
S315080127F06F1283320000F03E197C0508257C050816
S31508012800397A0508317C05080000803B367C0508C5
S31508012810B8F1010F0FD04046666926F01DFA054644
S31508012820012026F019FA104BCDE9025001930F4BFE
S31508012830009385233DE7287F01280ED0666926F097
S315080128400BFA0546404626F007FA074BCDE9025032
S315080128500193074B009386232BE7D9F8000028F04C
S3150801286035FFC6E9000164E714770508607A0508AB
S31508012870537A05080000000051EC100BC1F30A5306
S315080128802DE9F041A3F2FF350C460646132D32DC3D
S31508012890002D20DB384B0F4643FA05F801EA0803F9
S315080128A003432DD032A3D3E9002328F0B1FD00223A
S315080128B0002329F0F3F940B1002C03DA4FF4801311
S315080128C02B411F4427EA080400262346324643ECD7
S315080128D0102BBDE8F08126A3D3E9002328F098FD43
S315080128E00022002329F0DAF90028EED0002C2ADB91
S315080128F000263446E9E7332D06DDB5F5806F1BD092
S3150801290041EC100BBDE8F081A3F213434FF0FF37FA
S31508012910DF400742F4D016A3D3E9002328F078FD57
S315080129200022002329F0BAF90028CED0002C33461C
S3150801293010DB23EA0706C8E702460B4628F068FDBE
S3150801294041EC100BDEE724F0004426430DD14FF08D
S315080129500044BAE7142D06D0C5F134050122AA4070
S315080129601344B342E5D20134E3E70026034CACE74E
S315080129709C7500883CE4377EFFFF0F000000F0BF1E
S315080129800348044B834202D0034B03B118477047EF
S31508012990F40E0020F40E002000000000064B074943
S315080129A0C91A891048BF0131491003D0044B0BB12C
S315080129B001481847704700BFF40E0020F40E0020A6
S315080129C00000000010B5064C237843B9FFF7D8FF7D
S315080129D0044B13B10448AFF300800123237010BDE3
S315080129E0FA55002000000000A086050808B5054B29
S315080129F01BB105490548AFF30080BDE80840FFF75C
S31508012A00CDBF00BF00000000E0310020A086050808
S31508012A10A3F5803A704700BF174B002B08BF134B2D
S31508012A209D46FFF7F5FF00218B460F461348144ACA
S31508012A30121A39F049FB0E4B002B00D098470D4B63
S31508012A40002B00D098470020002104000D000D48F6
S31508012A50002802D00C48AFF300802AF0F7FC2000CA
S31508012A6029002BF073FC2AF0D9F900BF00000800F1
S31508012A700000000000000000C00A0020F40E00203B
S31508012A80B0570020000000000000000037B501F033
S31508012A9089FC00B301F064FC684601F027FC0622B4
S31508012AA00E490F4C0B68BDF800505A43A018A552A1
S31508012AB0BDF8022001334280BDF80420592B8280DB
S31508012AC00B6008DDC72B4FF00100C8BF0023054A7C
S31508012AD0C8BF0B60107003B030BD00BFF8310020CD
S31508012AE0F4500020FB55002013B501F08FFB044676
S31508012AF0C8B9B3EE090A01F0B3FB01222346114610
S31508012B00104605F053FC22460949012003F0D2FF7D
S31508012B10FF2802464FF0010108D023460846CDE9B1
S31508012B20001105F0E9FB204602B010BD0C46FAE794
S31508012B308D2A0108F8B51D4B04461B780E4693B33A
S31508012B402CF006FC4FF0060C194B1A491A68234655
S31508012B50951BB41A6219964203DC2CF0FDFB002082
S31508012B60F8BD2A46002DB8BF05F1C8020CFB02F2D2
S31508012B708F18B7F902E08A5EB7F9047007EE10EA12
S31508012B8007EE907A06EE902AB8EEC77AF8EEE66A6C
S31508012B90F8EEE77AC3ED006A83ED017AC3ED027AAE
S31508012BA001350C33D6E70120DAE700BFFB550020D3
S31508012BB0F8310020F450002008B5134A1348137859
S31508012BC00133DBB21370124A1278013A052A17D873
S31508012BD0DFE802F00D0D0D0A16032CF01FFBBDE808
S31508012BE008400C482CF017BB2CF015FBF7E7DB0760
S31508012BF0FAD52CF013FBBDE8084006482CF00EBBAD
S31508012C002CF009FBF7E700BF67560020C8CC04087B
S31508012C1066560020B0CC040837B51B4D1B4C2870EE
S31508012C202BF06FFC2BF06EFC2B78194AC3EB0313C0
S31508012C3013441849002220682DF0D0FC2B78062B66
S31508012C4019D101220DF107038DF8072012491348FE
S31508012C500988007814F022FB05462BF052FC2BF06C
S31508012C6051FC9DF807300E492068AAB22DF0B6FC32
S31508012C70002003B030BD052BFAD1002301228DF8BF
S31508012C8007300DF10703E1E7665600207833002087
S31508012C90FC55002080C50408A4550020160D002007
S31508012CA09DC5040813B5204C2BF02BFC2BF02AFCF0
S31508012CB01E4920682DF092FC2BF023FC2BF022FCF8
S31508012CC020681B4C1B492DF089FC20461A4939F00E
S31508012CD04CFA1A4904F10F0039F047FA184904F178
S31508012CE01E0039F042FA174904F12D0039F03DFA70
S31508012CF0154904F13C0039F038FA144904F14B003E
S31508012D0039F033FA124904F15A0039F02EFA002340
S31508012D106421CDE900330F4A0F4809F0E1F802B002
S31508012D20BDE8104000F004BA78330020D2C5040883
S31508012D30FC550020EBC50408F8C50408FDC50408C0
S31508012D4002C604080AC60408B66C050819C60408AA
S31508012D506A6C0508B92B0108003200202DE9F041FB
S31508012D600368B04A23F47F4323F0070393420446DA
S31508012D708AB000F044810FD8AB4A934200F0A28092
S31508012D8002F58032934200F0A180A2F5A022934277
S31508012D9027D00AB0BDE8F081A44A934200F0B0807A
S31508012DA002F18062934200F0C78002F17B429342AE
S31508012DB0EFD1427A102AECD100F10A019C4839F088
S31508012DC059F90028E5D12BF09CFB2BF09BFB994B7D
S31508012DD0994918682DF002FCD4F80520974B1A601A
S31508012DE0D7E7944D2BF08DFB2BF08CFB9449286883
S31508012DF02DF0F4FB0120FFF70FFF202201201146D9
S31508012E0014F090FA0121084614F0B0FA04462BF0A2
S31508012E1078FB2BF077FB8B49A2B251E0E319DD7DF4
S31508012E201B7E083B012B16D86E1E07F11901324687
S31508012E30214402A839F0A1F905F127030DEB030690
S31508012E400023814802A906F8203C39F084F90028B4
S31508012E5008BF4FF0010801353D44EFB2A37D013BA0
S31508012E609F42DBDBB8F1000F93D0724D2BF049FB83
S31508012E702BF048FB754928682DF0B0FB744B00937D
S31508012E80617AA67AE27A41EA06210123D4F8050095
S31508012E9014F098F904462BF034FB2BF033FB6D49FB
S31508012EA02868A2B22DF09AFB002C7FF472AF14F0B9
S31508012EB051FA04462BF025FB2BF024FB6649A2B2F6
S31508012EC0286874E04FF000084746C7E7594D2BF0CC
S31508012ED018FB2BF017FB614928682DF07FFB0220B0
S31508012EE0FFF79AFE5A4B1021514A187814F0AAF99D
S31508012EF004462BF006FB2BF005FB5949A2B2DFE786
S31508012F00027A102A7FF445AF00F10901554839F0D4
S31508012F10B1F800287FF43DAF2BF0F3FA2BF0F2FA63
S31508012F20444B514918682DF059FBA279637943EA54
S31508012F3002234E4A13802CE74D4B1B78062B3FF68E
S31508012F4028AF042B4FD8022B15D0032B7FF421AFC2
S31508012F50384D2BF0D6FA2BF0D5FA464928682DF0CC
S31508012F603DFB424B1B88002B31D004200AB0BDE83B
S31508012F70F041FFF751BE2F4C304E2BF0C2FA2BF021
S31508012F80C1FA3C4920682DF029FB3368304D9BB1C5
S31508012F900320FFF741FE3168287814F069F90546E0
S31508012FA02BF0AFFA2BF0AEFA3349AAB220680AB071
S31508012FB0BDE8F0412DF012BB287814F031F9054629
S31508012FC02BF09FFA2BF09EFA2C49AAB2EEE7204B7A
S31508012FD0187814F025F904462BF093FA2BF092FA97
S31508012FE02649A2B26CE72BF08CFA2BF08BFA114B1F
S31508012FF0204918680AB0BDE8F0412DF0EFBA0D4D29
S315080130002BF07FFA2BF07EFA1D4928682DF0E6FA97
S31508013010FF220F4B1A700023084A1360134A1380C4
S31508013020E8E600BFA0000601A0000500A00009020D
S31508013030B4C804087833002069C70408FC310020A5
S315080130401DC6040848C6040869C6040878C60408E3
S31508013050160D0020BBC60408DEC60408FEC6040811
S315080130602FC70408A4C8040895C70408A455002056
S3150801307066560020C8C7040800C8040831C80408F1
S3150801308055C8040838B504462CF082F8104B054695
S315080130909C4218D00F4B9C420CBF0124FF242BF0F5
S315080130A030FA2BF02FFA0C482B4622460B490068BA
S315080130B02DF094FA012D05D1FF2C03D0084B24B924
S315080130C005221A7038BD0024E9E70622F9E700BF90
S315080130D098CC040880CC04087833002086C80408F4
S315080130E065560020062808D8431F012B03D8044B30
S315080130F01B78032B01D9FFF78FBD0120704700BF4D
S315080131006656002010B5064C00F06AF82078431F71
S31508013110012B01D8FFF7E6FF0023237010BD00BF7E
S31508013120655600200122014B1A7070476856002027
S3150801313013B5204829F0FEFF1F4829F0FBFF0AF0C6
S315080131401FFF1E4C20600AF015FF1D4B22681860F0
S315080131505369196804290BD15968012908D1996855
S315080131605A2905D1DB68032B02D1137F012B05D020
S31508013170144802B0BDE8104029F0DCBF9369124A31
S315080131809B081360FFF7B0FC08B11048F1E700216E
S315080131900846FFF7CFFC03460028F8D10C4AC82198
S315080131A01070CDE900000B4A0B4808F099FE0B4850
S315080131B0DFE700BFC4C80408CFC8040824320020CA
S315080131C020320020D6C804084832002002C9040863
S315080131D068560020253101082832002024C9040830
S315080131E00322204B10B519681F4B91FBF2F11B689E
S315080131F01869FFF79FFC012832D01C4B1A787AB35D
S3150801320000221B4C1A70206826F028FA014620B1C4
S31508013210BDE81040174829F08DBF206826F014F83C
S31508013220006900F02FF804462DF0FEFB08F09AFE1F
S31508013230014624B9BDE810400F4829F069BF012CA1
S3150801324007D10E4829F064FF0520BDE81040FFF7B5
S3150801325049BF022C04D10A4829F05AFF0620F4E78F
S3150801326010BD00BF483200202432002068560020D5
S31508013270203200202AC9040842C904085CC9040886
S3150801328076C904089FED2B7A0FC8F0B52A4F2B4C47
S315080132903D68F0EE475A6E1C052EA8BF002604EBC2
S315080132A0051585E80F00B1EE046A234600224FF0A2
S315080132B0FF303E60F3EC017AD3ED036A77EEA57A27
S315080132C077EEA67AD3ED076A77EEA67AD3ED0B6A7F
S315080132D077EEA67AD3ED0F6A77EEA67A411CC7EE8A
S315080132E0866A04D0F4EEC76AF1EE10FA02DDB0EE92
S315080132F0667A10460132042ADCD1114B1A68002A73
S31508013300C4BF02F1FF321A60032810D0DFED0D7A2F
S31508013310B4EEE77AF1EE10FA0AD40B4A1168814243
S3150801332002D11968002903DC122110601960F0BD69
S315080133300320FCE700000000503200205432002030
S315080133404C3200206666663FC40A002030B5036821
S315080133507C4A23F47F4323F00703934289B040F064
S31508013360EE80082200211220774B13F0ADFF0446A8
S3150801337010B3764D764928682DF030F975492868D5
S315080133802DF02CF92BF0BDF82BF0BCF8724B734AD3
S31508013390009373493D2328682DF020F97149234686
S315080133A0714A28682DF01AF9204600F009FB6F4981
S315080133B028682DF013F9FEE70146032214206C4B09
S315080133C013F082FF044610B3604D614928682DF059
S315080133D005F9604928682DF001F92BF092F82BF0D0
S315080133E091F85D4B5D4A00935D494B2328682DF0A2
S315080133F0F5F85C4923465C4A28682DF0EFF8204623
S3150801340000F0DEFA594928682DF0E8F8FEE701468A
S3150801341005221620574B13F057FF054610B34B4CA0
S315080134204B4920682DF0DAF84A4920682DF0D6F87C
S315080134302BF067F82BF066F8474B484A0093484942
S31508013440592320682DF0CAF846492B46464A206872
S315080134502DF0C4F8284600F0B3FA444920682DF047
S31508013460BDF8FEE70DF10F0104A813F093FF04461A
S3150801347010B3364D364928682DF0B0F83549286815
S315080134802DF0ACF82BF03DF82BF03CF8324B334AD3
S3150801349000933349642328682DF0A0F8314923465F
S315080134A0314A28682DF09AF8204600F089FA2F4902
S315080134B028682DF093F8FEE7BDF8143001465BBA8B
S315080134C0ADF818309DF8133008228DF81A30FF230D
S315080134D08DF81B30FE238DF81C309DF8123018200C
S315080134E08DF81D30BDF810305BBAADF81E3006AB4D
S315080134F013F0EAFE054610B3144C154920682DF061
S315080135006DF8144920682DF069F82AF0FAFF2AF0B7
S31508013510F9FF114B114A00931149742320682DF0C4
S315080135205DF810492B46104A20682DF057F82846B1
S3150801353000F046FA0D4920682DF050F8FEE709B06B
S3150801354030BD00BFA000010091C9040878330020EE
S3150801355067C704089AC9040806CA04089FC9040863
S31508013560C7C90408D6C90408D3C90408EBC904089D
S31508013570FCC9040800CA040810B5274C03F0F8FF73
S3150801358004F050FA236F23F0070343F0030323677C
S315080135902BF0C9FE214B00209B6ADB015EBF4FF46D
S315080135A080321F4B9A62D4F8203123F0070343F087
S315080135B00203C4F82031D4F8283123F0070343F075
S315080135C00203C4F82831D4F8403123F0030343F049
S315080135D00203C4F84031D4F8603123F0030343F001
S315080135E00203C4F86031D4F8403223F0030343F0F0
S315080135F00203C4F84032D4F8003223F0070343F03B
S315080136000203C4F80032D4F8083223F0070343F062
S315080136100203C4F8083210BD008000500040005A69
S315080136200060005A30B5204D9DB008AC0FCD0FC4CF
S3150801363095E80F0084E80F002C22002111A838F024
S3150801364043FD1A4B01241093562312930523159310
S3150801365006230E2200210DF112008DF8454017931D
S3150801366038F032FD4FF47020114B08AACDE9020358
S315080136700B238DF810300C238DF811300D4B02A950
S315080136800593202306930C4B0C48009310AB8DF839
S315080136901D4007F051F9044600214FF4E1302AF0A4
S315080136A082FF20461DB030BD60CC04080000015BD6
S315080136B03C00015B69560020A43200201433002027
S315080136C0022905D8034B1B68186808B1436A1847CD
S315080136D0704700BFC80A002008B50449044807F026
S315080136E08FFEBDE80840FFF79DBF00BFCC0A00204A
S315080136F03833002001482CF0A8BF00BF143300203E
S31508013700014B1A6A186810471433002008B5044893
S315080137102BF039FDBDE8084002482BF034BD00BF47
S3150801372098CC040880CC040808B504482BF070FD31
S31508013730BDE8084002482BF06BBD00BFC8CC0408A1
S31508013740B0CC0408184B37B583422AD1174B1B78DE
S315080137503BB3C8B213F064FD054610B3144C1549C2
S3150801376020682CF03BFF144920682CF037FF2AF01B
S31508013770C8FE2AF0C7FE114B114A00931149852349
S3150801378020682CF02BFF10492B46104A20682CF094
S3150801379025FF284600F014F90D4920682CF01EFF74
S315080137A0FEE703B030BD00BF403300208956002034
S315080137B07833002067C704089AC904083B09050835
S315080137C0C8080508C7C90408D6C90408D3C904081E
S315080137D0EBC9040830B500250368584A23F47F432A
S315080137E023F0070385B0934204460295ADF80C50C1
S315080137F07ED002F5802293420ED0A2F182729342C4
S3150801380040F09A804E4B1B78002B00F0958005B04E
S31508013810BDE830402DF085B9B0F805301B2B40F0D6
S315080138208B80FF2304A91A4611E903002AF062FED8
S31508013830012814BF41F2FC15414B05F0FC0208BFF3
S3150801384018701B21207913F055FD054610B33D4C20
S315080138503D4920682CF0C2FE3C4920682CF0BEFE8A
S315080138602AF04FFE2AF04EFE394B3A4A00933A495E
S31508013870592320682CF0B2FE38492B46384A20686D
S315080138802CF0ACFE284600F09BF8364920682CF04F
S31508013890A5FEFEE7344900902379344A096834487D
S315080138A000F0E8F80546002846D0264C2649206847
S315080138B02CF094FE254920682CF090FE2AF021FE72
S315080138C02AF020FE224B234A0093234962232068CB
S315080138D02CF084FE21492B46214A20682CF07EFED5
S315080138E0284600F06DF81F4920682CF077FEFEE7A0
S315080138F0B0F80530B7EE047A07EE903AF8EE677A33
S31508013900B0F8073067EE877A013307EE103AB8EE5A
S31508013910C77A67EE877AB1EE047A67EE877AFAFE96
S31508013920677AFCEEE77A17EE903AB3F57A7F38BFF5
S315080139304FF47A730C4A136005B030BDA000060235
S31508013940895600207833002067C704089AC90408F5
S315080139504A090508C8080508C7C90408D6C90408D4
S31508013960D3C90408EBC90408D40A0020453701085D
S3150801397040330020012208B5074B1A700022074B75
S315080139801A700422064B1A701F22064B1A7006F08B
S315080139906BFF054B186008BD1F0D00208A560020D5
S315080139A01E0D00201D0D002078330020024B03490F
S315080139B018682CF013BE00BF783300206A09050881
S315080139C070B50C4C0C49064620682CF007FE06F02B
S315080139D04BFF0546206806F03BFF3046FFF7E6FF3A
S315080139E0284606F035FF20680449BDE870402CF0EA
S315080139F0F5BD00BF783300206C0905086E09050876
S31508013A0038B505462BF0ABFC00230B4A14685CB1AC
S31508013A10AC4206D1A96A6BB199622BF0A6FC0120CA
S31508013A2007E02346A46AF2E7002DF3D02BF09DFCAC
S31508013A30204638BD1160F0E77C33002010B50446F6
S31508013A4098B108F067F92046FFF7DAFF10B194F844
S31508013A502C300BB9002010BD2BF081FC044A1368E9
S31508013A60013B13602BF081FCF4E72220F3E700BF4A
S31508013A70803300202DE9F04385B0054691469846E6
S31508013A800E469DF8307009B9002F5CD12846FFF71C
S31508013A90D5FF0446002836D185F82C00686308F05E
S31508013AA05BFA864233D908F0C9F92146844640F2C1
S31508013AB0E7304FF47A720023E6FB0C0128F070F91F
S31508013AC04FF0FF32002328F06BF92B46E8861146A2
S31508013AD02846CDE900441D4A2CF081FF044690B9D9
S31508013AE0C5E9089885F82D702E632BF038FC184A1D
S31508013AF0136833B31A469B6A002BFBD195620023E0
S31508013B00AB622BF032FC204605B0BDE8F08347B125
S31508013B102B4631462846CDE900440C4A08F0E0F91F
S31508013B20DCE7304603A908F0BDF904460028EAD1C6
S31508013B302B462846CDE90077044A03992CF02BFF3A
S31508013B40CCE71560DBE72124DDE700BF553B01081B
S31508013B507C33002091F82C3013B50C4683B98B8E33
S31508013B60CA8E93420ED243B9CDE9003320460B469D
S31508013B70104A4FF0FF312CF0F2FEA38E0133A386D3
S31508013B8002B010BD52B191F82D307BB101230093DB
S31508013B90D1E908232046096BFFF76CFF0123064A82
S31508013BA084F82C30136801331360E9E7084608F0F6
S31508013BB0B1F8F3E7553B0108803300202DE9F041C0
S31508013BC0144E336823B34FF00008134F2BF0C7FB8D
S31508013BD005463C6824B92846BDE8F0412BF0C5BB2B
S31508013BE094F82C3093B1336884F82C80013B336008
S31508013BF094F82D3013B92046FFF702FF28462BF01B
S31508013C00B4FBD4E9083120469847DFE7A46AE1E71F
S31508013C10BDE8F081803300207C330020034B1B680C
S31508013C20002B14BF04200120704700BF80330020F9
S31508013C30024B1868B0FA80F04009704780330020BB
S31508013C40202808B513DC032804DC0138012806D925
S31508013C500E200BE0094B0438C340DB07F8D50123D6
S31508013C6004220921022004F0A1FB002008BD4028F6
S31508013C70EED1012304220821F4E700BF1100001048
S31508013C8007B508202BF0ADFA02238DF80030054B55
S31508013C90684601932AF04BFC082003B05DF804EB53
S31508013CA02BF0AABA006A181070B5144680220C4B7C
S31508013CB00D461A6440EA02010A482BF0A3FB094E95
S31508013CC02544AC4204D18022074B00201A6470BDFA
S31508013CD0002130462BF096FB04F8010BF1E700BFF3
S31508013CE000E0035000000A5000D00350F8B58026C2
S31508013CF00D46094C094F04F500531E6400F07F0177
S31508013D0038462BF07FFB04F58054294638462BF0BC
S31508013D1079FB00202664F8BD00C0035000000A5054
S31508013D2070B5264C8EB0264601AD0FCE14340FC59C
S31508013D300FCC06AD0FC594E80F0085E80F00204BA0
S31508013D400121039306AB05934FF480735720ADF811
S31508013D501C3003F0CBF901213A2003F0C7F90023FF
S31508013D6004220321022004F021FB02210023084634
S31508013D70012204F01BFB002304220121022004F086
S31508013D8015FB012304220721002004F00FFB0D482F
S31508013D9001A904F0E9F90C4B0C4A0020C3F8CC241C
S31508013DA04FF00212C3F8C424A2F58032C3F8C8241E
S31508013DB01C22C3F8B4240EB070BD00BF74090508EF
S31508013DC0A05A320000000A5000C003500200030046
S31508013DD010B52DED028B9FED188AB7EE007AC8EE65
S31508013DE0007A77EEC77A9FED157AF4EEC77AF1EE87
S31508013DF010FA82B019DCF5EEC07AF1EE10FA17D492
S31508013E00FCEEE77ACDED017A9DF8044019202146AA
S31508013E10FFF76CFF631C00EE103AB8EEC00A88EE95
S31508013E20000A02B0BDEC028B10BDF0EE477AE7E757
S31508013E30DFED037AE4E700BF00007A4400007F4320
S31508013E400000000013B5044601211B200DF10702ED
S31508013E50FFF72AFF9DF8073003F01803102B0CD043
S31508013E6004D863B1082B0CD0012004E0182BFBD130
S31508013E70054B0020236002B010BD044BF9E7044B43
S31508013E80F7E7044BF5E700BF00007A3D0000FA3C6E
S31508013E900000FA3B00007A3C01212DE9F04300229B
S31508013EA085B0804608462AF095FC9FED6D0AFFF716
S31508013EB08FFF05202AF0CEFB00202AF078FC684601
S31508013EC0FFF7C0FF322007F0D1FF40211A20FFF784
S31508013ED00DFF44216A20FFF709FF78212320FFF708
S31508013EE005FF052007F0C2FF0221722001AAFFF78C
S31508013EF0DBFEBDF804305BBA9BB2B3F5FC7FF0D3A9
S31508013F007822002123202AF069FB0221722001AAC6
S31508013F10FFF7CAFE4FF000090C23BDF804704C46A2
S31508013F207FBABFB2B7FBF3F74D464E461FFA89F380
S31508013F30BB4278D396FBF7F607EE906A9DED007AB9
S31508013F40F8EEE77A95FBF7F567EE877AC8ED007A1A
S31508013F5007EE905AF8EEE77A94FBF7F467EE877A5C
S31508013F60C8ED017A07EE904AF8EEE77A67EE877AA6
S31508013F7001AAC8ED027A02211320FFF795FE9DF9E1
S31508013F8004309DF8058001AA0221152048EA032874
S31508013F90FFF78AFE9DF904309DF8057001AA0221F2
S31508013FA0172047EA0327FFF77FFE002E9DF9042015
S31508013FB09DF80530B8BF0336002DA8EBA606B8BF95
S31508013FC00335002C43EA0223B8BF0334C6F307219D
S31508013FD01320A3EBA404A7EBA505FFF787FEF1B20F
S31508013FE01420FFF783FEC5F307211520FFF77EFE90
S31508013FF0E9B21620FFF77AFEC4F307211720FFF767
S3150801400075FEE1B21820FFF771FE402200216A20F1
S315080140102AF0E4FA0022114610462AF0DBFB0020BA
S3150801402005B0BDE8F08301AA0C217420FFF73CFE18
S315080140309DF90A209DF80B3009F1010943EA02238B
S315080140401E449DF90C209DF80D3043EA02231D44B8
S315080140509DF90E209DF80F3043EA02231C4465E7BB
S3150801406000007A44B7EE007AC7EE007A9FED057A2A
S31508014070C0ED157AC7EE007A80ED140AC0ED167AFE
S31508014080704700BF35FA8E3CF0B52DED048B0F460F
S3150801409000F15C050446D0ED098A90ED0A9AD0ED47
S315080140A00B9A85B028461646B0EE408A2AF047FD97
S315080140B0002F48D094ED097ADFED386AB4EEE67A36
S315080140C0F1EE10FA3FDBDFED367AB4EEE77AF1EE80
S315080140D010FA38D894ED0A7AB4EEE67AF1EE10FAC7
S315080140E031DBB4EEE77AF1EE10FA2CD8F5EEC09A88
S315080140F0F1EE10FAF1EE688AB1EE490A04F16807A1
S3150801410025DB29F0ADFC8DED010AB0EE680A29F030
S31508014110A7FCB1EE400A28463A4601A98DED020AE6
S315080141208DED038A2AF043FD28462AF0FBFC0EB9D9
S3150801413000236366D4ED147AB6EE000A284680EEAB
S31508014140270A2AF014FD05B0BDEC048BF0BD29F051
S3150801415087FC9FED149A39EE400A8DED010AB0EEFF
S31508014160680A29F07DFC38EE098AB1EE400A01A8F1
S315080141708DED020A8DED038A2AF0D4FC3A462846CB
S3150801418001A92AF014FD28462AF0CCFCD4ED187AA8
S31508014190F1EE677AC4ED187AC9E700BFDA1B7CBF6E
S315080141A0DA1B7C3FDB0F494070B5044600F052F834
S315080141B00128054626D104F12406304600F0D6F832
S315080141C03146204604F144062AF035FC304600F013
S315080141D0DBF8D4ED117AF1EE677AC4ED117AD4EDF4
S315080141E0127AF1EE677A31462046C4ED127A2AF040
S315080141F03EFC29462046BDE870409FED030A002291
S31508014200FFF742BF70BD00BF000000007FB5022561
S315080142100E4E0F4835702AF0ECFB2AF0F7F90446E2
S3150801422060B90DF103002AF016FB044630B90323E1
S3150801423001A83370FFF730FE044610B12AF0C2F91F
S3150801424000252046357004B070BD00BF8B5600208E
S3150801425084330020014B1878704700BF8B56002025
S3150801426070B501212DED028B0223B0EE408A1C4E5A
S3150801427082B00022084633702AF0ACFAB0EE480A3A
S31508014280FFF7A6FD174D082085ED000A2AF0F2F979
S3150801429003202AF0DFF900202AF076FA00202AF016
S315080142A086FA322007F0E2FD0F4C002101202AF0A0
S315080142B0AAFA01A82AF0B5FA95ED000A20462AF0CD
S315080142C0B7FB95ED000A2046FFF7CCFE20462AF0FB
S315080142D0EAFB0123337002B0BDEC028B70BD00BF4F
S315080142E08B56002000340020843300201A4AD36BF1
S315080142F06BB392ED0C6A9FED197A07EE903A26EEAA
S31508014300076AF8EE677AC6EE276A92ED0D6AFDEE40
S31508014310E66A26EE076A16EE903AC6EE276AFDEEBB
S31508014320E66A038016EE903AD2ED0E6A66EE876A61
S3150801433086EEA77ABDEEC77A438017EE103A8380D8
S3150801434000231363536393630023D3637047038086
S3150801435043808380704700BF8433002000007A447D
S315080143600148FFF721BF00BF84330020054A1278B0
S31508014370012A04D0002202604260826070472AF056
S31508014380A3B900BF8B560020054A1278012A04D02A
S31508014390002202604260826070472AF0C5B900BFF8
S315080143A08B56002008B5094B1B78012B01D000203C
S315080143B008BD2AF042FA064A136801331360002839
S315080143C0F5D0044A136801331360F1E78B560020D0
S315080143D0FC330020F83300209FED060A00F10C0398
S315080143E0B0EC017AF1EC017A984207EE270AF7D187
S315080143F0704700BF000000002DE9F041424D88B02A
S3150801440001AC0FCD0FC495E8070084E80700012425
S3150801441001213A2002F06AFE3C4E0121292002F0D0
S3150801442065FE3B4B304601A903938DF8124004F013
S31508014430B9F9234604220321022003F0B7FF02211A
S3150801444022460846002303F0B1FF234621460422EB
S31508014450022003F0ABFF042200212346022003F0C9
S31508014460A5FF2C4D2C4B05F50058C5F834374FF0F0
S315080144700213C5F8303703F58033C5F838371C23DE
S315080144804FF44870C5F8203707F054FF05F58057F3
S315080144901420C8F8A04007F04DFF2320C7F8A04014
S315080144A007F048FFB9213046C8F8A0402BF031F88B
S315080144B0002303211A460220C7F8A04003F076FF1D
S315080144C0002302211A46084603F070FF23462146B7
S315080144D00022022003F06AFF002223461146022029
S315080144E003F064FF304604F03BF900212920C5F8A2
S315080144F03417C5F83017C5F83817C5F8201702F06C
S31508014500F5FD08B0BDE8F081A809050800C0055009
S3150801451000127A0000C00350020001000348044A51
S315080145200449121A92102AF07BBB00BFE88A0508D3
S31508014530E88A0508B057002008B500F02FF8FFF7FC
S31508014540EDFF124B12498B4212D30020114B12492F
S315080145508B4218D3FEF760FA186850F8224058685B
S3150801456040F82240013298688242F5D30C33EAE7D3
S315080145700022F8E71C6844F8220001325C68A2426E
S31508014580F8D30833E4E70022F8E700BFA886050850
S31508014590B4860508B4860508B48605084FF4804133
S315080145A04FF0FF30114B124A10B59A60D3F88820A4
S315080145B042F47002C3F888200E4A91660E4901F545
S315080145C0005210660D4850660220C3F8D000BFF3AA
S315080145D04F8FBFF36F8F01244FF440330848C0F85B
S315080145E08041D36004600B6110BD00BF00ED00E09F
S315080145F0002001080090005000800044F7FF3700B2
S3150801460000E100E0014B1868704700BFDC0A002092
S31508014610084B1B6F03F00703022B04D0032B05D0AD
S31508014620012B05D0FEE7044B18687047034BFBE7DF
S315080146300348704700800050DC0A0020E40A002085
S31508014640002D310108B5FFF7E3FF054B1B6FC3F3D7
S3150801465003330133B0FBF3F0024B186008BD00BF0A
S3150801466000800050D80A00200048704700B4C404EE
S31508014670014B1868704700BFE40A0020054B186013
S31508014680054B1B6F03F00703032B01D1FFF7DABFB5
S31508014690704700BFE40A00200080005000487047B8
S315080146A0002D31014FF0B4439868C0F304400C283B
S315080146B00AD8DFE800F00B090909090907211909D0
S315080146C01B1D1F000F487047002070479B6803F0A9
S315080146D04073B3F1807F11D0B3F1007F10D00A4A3D
S315080146E0002B08BF104670470848704708487047AE
S315080146F0084870470848704708487047084870478F
S3150801470008487047405DC60000093D00C0EA21011E
S3150801471080BA8C010048E801005A62020024F400BC
S3150801472080841E0040420F00014B1868704700BF85
S31508014730E00A00204FF000639B6A10B503F1784246
S31508014740B2F5903F11D21968094A91420DD1094C27
S31508014750227812F0FD0F01D0002010BDDB699847C1
S315080147600028FAD101232370F6E74FF48170F4E7A4
S3150801477007B0CD5E8C5600204FF00053074A1A60E9
S31508014780BFF34F8F0649074BCA6802F4E062134329
S31508014790CB60BFF34F8F00BFFDE700BF02020FF0EA
S315080147A000ED00E00400FA050346054A05491068CC
S315080147B003448B428CBF4FF0FF301360704700BF34
S315080147C0E80A0020000004204FF0BA4201230548F8
S315080147D002F580514B60086203490968D160034AB2
S315080147E01370704701000C1FEC0A00208D5600203B
S315080147F04FF0BA41074BCA681A600123064A53604B
S315080148004B6813F00203FBD14FF0FF311162034AE3
S3150801481013707047EC0A00200020005D8D560020B9
S315080148204FF0BA42D369126A10B5134013F0F85023
S315080148301EBF0120114A1070DC070ED54FF0BA4190
S315080148400A695007FCD50E4A4C6910682044106065
S3150801485088695168014401205160590341BF0849DB
S315080148600A6802F180720A601A0341BF04494A685C
S3150801487002F180724A60034AD36110BD8E56002048
S31508014880043400200020005D0023044A0449137003
S31508014890044A05481360054A00F0E2B88E5600201E
S315080148A0F147010810340020C947010821480108C9
S315080148B008B500F03BF94FF0BA430A4AD9691368BB
S315080148C041F201500B4313604FF47D32064BDA6116
S315080148D0064B1A78002A4FF0000208BF10461A70D4
S315080148E008BD00BF103400200020005D8E56002050
S315080148F009230E4A70B5C0F810311368054601330D
S315080149000E461360FFF7D4FF044660B900F0FCF8C1
S315080149104FF48A722846064900F0DAF81EB1BDE856
S315080149207040FFF7C5BF204670BD00BF0C3400209C
S315080149306400005D9446F0B5BDF81870174E099CE1
S31508014940013F06EA0444BDF81C50C7F3090727438B
S315080149500A9C013D06EA0444C5F309052543BDF849
S315080149601440089A013C06EA0246C4F30904344392
S315080149701E0306F4405634435B0700EB011301F1AD
S315080149800201C3E90A7548BF44F480440B0100EBF0
S3150801499001114C6040F803C0F0BD00BF0000FF0FD5
S315080149A0F8B500210C250446D0F8743200F50976CD
S315080149B0DFF854C0D0F868028B4217DA05FB030307
S315080149C093F8BB20002142F0800283F8BB20FFF751
S315080149D08FFF4FF48A72D4F86C3283F00103C4F85E
S315080149E06C3202FB0343C4F86832F8BD05FB0107C4
S315080149F0D7F8B82056F804EF02EA0C0242EA0E028A
S31508014A00C7F8B8200131D7E70000FFFF8B1E012B3D
S31508014A1003D8044B1B6823B11847012901D8024B57
S31508014A20F8E77047283400202C34002010B52AF006
S31508014A308FFC04460021012006F04EFC20462AF090
S31508014A408BFC0022014B1A7010BD00BF8F56002047
S31508014A50024B03C883E80300002070471C3400207A
S31508014A6038B5114C2378EBB9104B114D1960114B20
S31508014A7028601A604FF080420F4B10489A66FFF77C
S31508014A80E7FF4FF400420E4B1A602B6803B19847B3
S31508014A900C480D4906F0B4FC0123002023700B4B8A
S31508014AA0187038BD1220FCE79056002028340020E3
S31508014AB02C34002024340020009000501C3400209F
S31508014AC000E100E014340020140A05088F5600207E
S31508014AD00B4B10B51B7873B10A4B1B786BB10023CE
S31508014AE092089A4201D1002010BD50F8234041F89E
S31508014AF023400133F5E71120F6E70E20F4E700BF5E
S31508014B00905600208F56002010B52AF021FC01216D
S31508014B100446084606F0E0FB20462AF01DFC012261
S31508014B20014B1A7010BD00BF8F560020064B1B782B
S31508014B3043B14FF0BA4213695B07FCD5034A1378B0
S31508014B40002BFCD1704700BF905600208F560020DD
S31508014B5008B5054B1B682BB1984718B1BDE8084045
S31508014B60FFF764BF08BD00BF243400200048704722
S31508014B70303400200048704730340020F0B5044630
S31508014B8001258C4205D88D4203D8002015601C608A
S31508014B90F0BD0020DFF828C01CF8017BB4FBF7F64E
S31508014BA007FB164EBEF1000F05D1B44207FB05F50A
S31508014BB004D03446E5E701300B28EDD10120E5E7BD
S31508014BC01C0A05082DE9F04F174687B004460D461D
S31508014BD09846FFF7CBFF17F1800F064602D1B8F1C9
S31508014BE07F0F04D0A02D12D82544A54203D1002059
S31508014BF007B0BDE8F08F94F900309F4202DD2770B7
S31508014C000134F2E79845B8BF84F80080F8E74FF019
S31508014C10000940F20A2A3B463A46002130462AF064
S31508014C2023F843464246012130462AF01DF84B46F1
S31508014C304A4649463046CDE90199CDF800A02AF001
S31508014C407DF840F20B232F4A0121CDE90032304687
S31508014C5040F2D5122C4BCDF808902AF06FF80121B5
S31508014C602A4B40F2D512CDE9013130460221284BB3
S31508014C70CDF800A02AF062F8B5F5006F2B4628BFDB
S31508014C804FF4006323F0030B4FEA5B0A1FFA8AFA13
S31508014C902246002130460593CDF800A005232AF0C7
S31508014CA02BF80523224601213046CDF800A02AF02B
S31508014CB023F80223059A002130460093CDE901998C
S31508014CC00123C2F38F022AF04BF801213046FFF780
S31508014CD00FFE00288CD1A5EB0B059F2D5C44CBD884
S31508014CE0002D84D0254414F9013B9F4204DD04F8C4
S31508014CF0017CA542F7D17AE79845B8BF04F8018C3B
S31508014D00F7E700BF0000A021000102200000B02142
S31508014D10000103302DE9F04F036895B00593436A06
S31508014D20066D0693836A42680793C36A856B08937F
S31508014D30036ED0F814B00993C36DD0F83C900A936A
S31508014D408369DFED576A0B9383680BFB01FA0C93B2
S31508014D50036B0D93436C00694B43F41A24EAE4741C
S31508014D60F71A9B1B234453430744AF42A8BF2F4658
S31508014D70019302FB05F3002502FB00F1119302FBE7
S31508014D8004F30E9713911293059B9D4203DB0020B2
S31508014D9015B0BDE8F08F00200B9B129E5344049377
S31508014DA0584574DB0199139B01351944DA4401917D
S31508014DB0EAE74FF000080C9B734402930D9B63448A
S31508014DC00393904547DB0137964494440E9B9F42D3
S31508014DD0EFDBB9F1000F0BD039F81030F2EE677A34
S31508014DE007EE103AB2EE477A77EE277AF3EE677A4C
S31508014DF0089BF2EE677A33F81030013007EE103A65
S31508014E00B2EE477A67EE277AF3EE677AF2EE677AB9
S31508014E10FDEEE77A17EE901AADF80830099B1944AA
S31508014E20069B9942B8BF1946079B9942A8BF1946DE
S31508014E3007EE901AF8EEE77AF3EE677AF2EE677AFA
S31508014E40FDEEE77A17EE901A049B03F8011B04930B
S31508014E50119B1E44A4E7029BF2EE677A13F9011B24
S31508014E6008F101080293039B0F9113F9011B109195
S31508014E7003930F990A9B1944109B594307EE101A7D
S31508014E80B8EEC77A47EE267AF3EE677A99E740F2E3
S31508014E900003B446274607EE903ADDF804E095E7A5
S31508014EA0000000382DE9F04F2DED048B436CD3B08B
S31508014EB02993836D82463793436D90ED178A38930C
S31508014EC0036DD0F840901D93C36C90F84850149325
S31508014ED08368C66B3993036B32913A93C36A3B93E2
S31508014EE040F20003ADF8423183694593002351939B
S31508014EF0FFF740FE04462DB91D9B149A13431CBFA8
S31508014F0021235193379B012B02D1389B012B01D0C9
S31508014F1021235193329B4BB1DDE9393213433B9A35
S31508014F2033431343DA0744BF21235193519D002D7F
S31508014F3040F0DA83DAF8043020460F93DAF81430B1
S31508014F40DAED188A0993DAF80C30BAEEE88A2A9368
S31508014F50DAF83430B3EE488A1E93DAF81C302B930C
S31508014F60DAF800303C93DAF810301593DAF838306D
S31508014F701693DAF82030179329F0DAFF1E9A2A9B3E
S31508014F80002EA3EB0203149A134493FBF9F30D9332
S31508014F90DDE91532A3EB02031D9A1344299A93FB03
S31508014FA0F2F3179A4893099B02FB03F30F9A13939B
S31508014FB0169B02FB03F32393239A1E9B02FB03F31F
S31508014FC00F9A3193159B02FB03F32193299B02FB4D
S31508014FD003F34993219B159A03FB09F34A93BDF8F9
S31508014FE024301C9308BF012343930DF5A17318BF01
S31508014FF0334646932A9B53430F9A53434B93179A27
S315080150002B9B0E955343099A5343409340F2002331
S3150801501009EE103A0E9B179A934219DB329BABB1F4
S31508015020FFF746FC5190002840F059833C9B2B9989
S3150801503009985943179B9AF9242059439AF9283014
S315080150404143DAF81800FFF7BDFD5190519846E340
S315080150500E9B299A1D995A431D9B1698D31A8A1A8B
S3150801506022EAE2721892159A1899D21A9042D4BF76
S31508015070C1EB0001C1EB0201002B27DB0E98489D0D
S31508015080169E9642D8BF28462490249A0E98121A3C
S3150801509001320A920F9A4A4318993092379A01FBBC
S315080150A002330A993F93DDE949320129D8BF1346EC
S315080150B0219A289313434C9300230C930C9B2B9A08
S315080150C0934206DB249B01330E93A3E70E9A24929F
S315080150D0DBE70C9B149A09FB03F3991AD31A2A9A4C
S315080150E01E9823EAE373521A9042D4BFC3EB000019
S315080150F0C3EB0200002908907DDB1E9991427ADCF8
S31508015100DDE90C12521A571C002A79D00A9A012A8B
S315080151107CDD814563D044DD012FA9EB000B65DCFD
S3150801512001260D9A0B92BE423246A8BF3A464792CD
S31508015130139A169972432E92721E20922E9AB2F5DE
S31508015140006F209AB8BF00222D9201324E92189A0A
S3150801515003FB01220F994A43239911434D910A9959
S315080151600129D8BF394689B241913A998A1842929A
S315080151700C9A149902FB09F2521A389903FB012376
S315080151802E9A2C93139BB2F5006FB8BF134633932F
S3150801519000231193119B479A93423ADB0B9B0133E8
S315080151A08BE7089A089992FBF9F209FB121B164636
S315080151B0BBF1000F0ED0012F06F10106A9EB0B0B6F
S315080151C00ADD0A465A4406FB09F191421CBF282208
S315080151D0519201E0012F0CDC0D9A0B92A3E7012FE6
S315080151E014DD4A4601264FF0000BECE74A46012634
S315080151F0E9E7089AE7E701270C9A0B92012602E0EC
S315080152003E460D9A0B924FF0000B8CE70D9A0B92C6
S31508015210F4E7119BBB42C4BF28235193119BFB1A88
S3150801522093FBF6F206FB1233002B18BF0132012A53
S315080152300A9B199209D1012B45DD00231093109A77
S31508015240089B1344199A534307E0012B38DCBBF139
S31508015250000F32D1089BCDF840B025934E9A199B81
S31508015260159953433D93199B2C9A73432F93109B7E
S31508015270013B002B3E93CCBF4FF487730023449325
S315080152803F9B01FB02330F9A179953430C9A2293BA
S31508015290119B13440E9A01FB0323099A53431B934B
S315080152A000232693269B3C9A934211DB119B0133DB
S315080152B011932C9B4B442C936CE728235193C9E7F4
S315080152C0CDF840B0BBE7089B259300231093C5E7AB
S315080152D02E9BB3F5006F14DB139BB3F5006F10DB40
S315080152E01B9B002B4FF02803519303DA099B002BD4
S315080152F0C0F2B5812F9BDDF880801A93139B129318
S3150801530014E01B9BDDF8B480002BBCBF2823519306
S31508015310099B002B3D9B1A93339B129301DA282391
S315080153205193129B002B01DA28235193DDE9303280
S3150801533013434C9A13434D9A1343229A1343DB079B
S3150801534000F19481309B03EBD3735B102793289B61
S3150801535003EBD3735B103493219B03EBD372319B1D
S31508015360521003EBD3735B103693239B03EBD37372
S315080153705B103593012320461F934F9229F04DFD6B
S315080153801F9B0125002B14BF0523012351AAD4F81D
S31508015390680206924F9ABDF89C100492349A0291BB
S315080153A00392BDF8942034910192419A2299009270
S315080153B0399A05950A4400214F9329F057FD51ABB7
S315080153C0CDE90553359BBDF820200493369B019200
S315080153D00393349B294602931C9B429A0093D4F863
S315080153E068024F9B29F042FD51AB0193439B469AB4
S315080153F000930223D4F86802194629F070FD51ABCF
S3150801540001931C9B032100933B9A0223D4F868025B
S3150801541029F065FD51ABCDE90553099B1B99049309
S31508015420129B459A03931C9B0A440293BDF82830A4
S3150801543004210193BDF868300093D4F868022B461D
S3150801544029F014FDB0EE490A0021D4F8680229F0C2
S3150801545031FC1F9B002B00F01481F0EE480AB0EED8
S31508015460480A2946D4F8680229F02EFCB8EEE80A5B
S315080154700025B3EE400A0221D4F8680229F01AFC85
S315080154802046099951AA29F096FC51AB412120469B
S31508015490964A019300954EF62C4329F0CAFC2046FC
S315080154A00A9951AA29F087FC2046199951AA29F087
S315080154B082FC2046089951AA29F07DFC20462799A5
S315080154C051AA29F078FC51AB40F2CD112046CDE91D
S315080154D00053874A874B29F0ACFC51AB40F2D711F0
S315080154E0854A2046CDE900532B4629F0A2FC2046E1
S315080154F029F007FD02222946204629F01DFD022230
S315080155000121204629F018FD204629F0FAFC0A9BBC
S31508015510012B04DC01222946204629F00DFD109BAA
S31508015520002B04DD02220021204629F005FD1F9BE0
S31508015530002B00F0AE80109B4A21023B129351AB1F
S3150801554001930023204600936C4A449B29F071FC81
S31508015550129B51AD013B1A93129B40F2CD11002BC0
S315080155604FF04F6320460093654ACCBF4FF48773CB
S315080155700023019529F05DFCB8F1000F0FDD2A46DD
S315080155804146204629F017FC00222046CF23114622
S315080155900195009229F04DFC204629F0B2FC4FF006
S315080155A0000851AD434641212046504A0195CDF8A0
S315080155B0008029F03EFC1A9B012B6DD119462A461B
S315080155C0204629F0F8FB4346424641462046CDE9A6
S315080155D0008529F02EFC204629F093FC022241463B
S315080155E0204629F0A9FC204629F08BFC0222042139
S315080155F0204629F0A1FC0A9B012B04DD012200218A
S31508015600204629F099FC204629F07BFC04222046F5
S31508015610114629F091FC01222046114629F08CFCFD
S3150801562004220221204629F087FC04220321204670
S3150801563029F082FC204629F064FC519800284ED1B5
S31508015640329B002B45D1269B4B9A01332693229BED
S3150801565013442293409A1B9B13441B9322E62F9BC8
S31508015660DDF880801A93139B129358E6289B219A9A
S315080156703493319B3693239B3593309B2793002391
S3150801568079E6B0EE480A2946D4F8680229F012FBF1
S31508015690ECE63E9B12935BE7A5DD129B2A46991E13
S315080156A0204629F088FB2A462046012129F083FB5A
S315080156B04246414643462046CDE9008529F0B9FBD5
S315080156C0204629F01EFC02224146204629F034FCD8
S315080156D081E72046FFF764F951900028B3D053B00B
S315080156E0BDEC048BBDE8F08F2846F8E700000450AE
S315080156F0060001600E7E08000607055000000550E9
S31508015700050302702DE9F04F2DED048B04468DB08B
S31508015710002800F0FC81D0F82CB0BBF1000F40F056
S31508015720F681036ADFEDCB8A13F0010F14BF4FF43C
S3150801573080624FF400629A42C0F2EB80FFF716FAD4
S31508015740D4ED057AB8EEE78AE36C276A0793B4F8CD
S31508015750503017F0010609EE103AE36B054605933A
S31508015760236C28EE288A0693BDF814A0BDF8189074
S3150801577040F0B88007EBD7784FEA6807C8F34F08B7
S31508015780CDE900A805233146226829F0C5FA052383
S315080157900121CDE90098A269284629F0BDFA226BB4
S315080157A0002A00F0AE80A38E0093022319462846EC
S315080157B029F0A2FACDE900A90123A26B0321284603
S315080157C029F0AAFADFEDA30A0021B0EE600A2846FD
S315080157D029F084FAF0EE480AB0EE480A0121284673
S315080157E029F07CFAB0EE490A0321284629F062FA23
S315080157F004212846079A29F04DFA4FF0000840F28D
S315080158002D234246414628460093CDE90188434661
S3150801581029F094FA904B40F2D712012128460093B9
S31508015820CDE901888D4B29F089FA40F2D712022178
S315080158302846CDE901888A4BCDF8008029F07EFA01
S31508015840002E63D14A2203212846CDE90166854BFC
S31508015850009629F073FA4FF0040800264FF0010B61
S31508015860814B5FFA88F840F2D71241462846CDE9BE
S31508015870013B00967D4B29F061FA33465246314683
S315080158802846CDE90166CDF8008029F069FA42F289
S3150801589002034A4659462846CDE90083029633460D
S315080158A029F05EFA022120232846CDE90013029643
S315080158B05B46BAB229F054FA59462846FFF718F852
S315080158C0002840F0BC80DDE90510414394F95330C6
S315080158D094F95220A06B0DB0BDEC048BBDE8F04FD6
S315080158E0FFF770B91FFA87F8CDE900A801235946D1
S315080158F0226829F011FA0123CDE900981946A2690F
S315080159004AE701235A4A009302234FE74FF0030857
S31508015910A3E7FFF72BF9D4ED057AB8EEE78AB4F8D1
S315080159205030054628EE288A09EE103AE36BF0EE68
S31508015930680A0793236CB0EE680A59460593E66C24
S31508015940276A29F0CBF9F0EE480AB0EE480A012198
S31508015950284629F0C3F903212846B0EE490A29F059
S31508015960A9F907F0010832460421284629F092F9D7
S31508015970B8F1000F68D1052307EBD77040100693DD
S315080159804FF480610BAB0AAAFFF7F8F80646002820
S3150801599040F0BD80304B014640F2D712CDE90100F7
S315080159A0009328462D4B29F0C9F940F2D712012157
S315080159B02846CDE901662A4B009629F0BFF9B8F1C8
S315080159C0000F44D102214A222846CDE90188254BF8
S315080159D0CDF8008029F0B2F9032100264FF001081D
S315080159E0214B40F2D7122846CDE9013800961F4BC4
S315080159F029F0A4F9334631462846BDF82820CDE9D1
S31508015A000166CDF8008029F0ABF922234146CDE99C
S31508015A10008328463346BDF82C20029629F0A0F9C2
S31508015A20B246B346079B5B456DDC0598079994F921
S31508015A305330414394F95220A06BFFF7C3F80DB0D8
S31508015A40BDEC048BBDE8F08F3846012397E70221A8
S31508015A50C3E700BF000000380E7E0800060001609B
S31508015A6006070550000005500000D0230503045021
S31508015A70280A0508A36922684B440893236B324414
S31508015A80002B3DD033F81830A16B08EE103A08EB1D
S31508015A900A03CB180993BDF82C3000210193BDF8F0
S31508015AA0283028460093069B29F036F9BDF82C3094
S31508015AB001210193BDF828302846089A0093069BD0
S31508015AC029F02AF90123099A00930321284629F086
S31508015AD013F9B0EE480A0521284629F0EBF8012109
S31508015AE02846FEF705FFB9440028A8D108F10108A0
S31508015AF0059B4345BEDC0BF1010B9A443E4491E7F5
S31508015B0040F20003C0E74FF00009C846F0E721203C
S31508015B1095E700BF58B1031F9FED137A0020DFED0B
S31508015B20136A9FED136A01EB4202914200D1704755
S31508015B30D3ED017AF8EEE77A67EE877AF4EEE67A3C
S31508015B40F1EE10FA03F104030CDCF4EE467AF1EEF9
S31508015B5010FA48BF2120F3EE677A17EE90CA21F8AA
S31508015B6002CBE2E72120F6E70000003800E07F4794
S31508015B7000E07FC72DE9F04F2DED048B0368C1B016
S31508015B803193C36890ED098A20930369D0ED088A99
S31508015B9011938369D0F804B02A93C36990F83850F1
S31508015BA02193036C28911593C36B1293D0E90C9337
S31508015BB02293C36A2393836A249383682B93436945
S31508015BC02C9300233F93FEF7D5FF04462DB9159B69
S31508015BD0129A13431CBF21233F93289B33B1DDE956
S31508015BE02B321343DB0744BF21233F933F9F002FEB
S31508015BF040F0EB82204629F09BF9249A209B0E97C8
S31508015C009B1A129A134493FBF9F3239A0D93119B4A
S31508015C109B1A159A1344229A93FBF2F33593219B07
S31508015C2003FB0BF31993119B03FB0BF317930BFB65
S31508015C3002F33693179B179A09FB03F33793119BC4
S31508015C4003FB09F30BFB03F33B93209B5343199A7D
S31508015C5032932A9B534339934DF6000309EE103AC2
S31508015C600E9B219A934206DB289B13B1FEF720FE71
S31508015C703F903F9FA9E2229A0E9B23995343159A77
S31508015C809A1A2592159AD31A23EAE373259A169333
S31508015C90119B9B1A169A9942D4BFC2EB0102C2EB19
S31508015CA003022D92259A002A1DDB0E9A359923980F
S31508015CB09842D8BF0A461B920E9A1B9B9B1A013320
S31508015CC009930999DDE936320129D8BF1346179A8E
S31508015CD029931343349300232A9A934206DB1B9B89
S31508015CE001330E93BCE70E9B1B93E5E709FB03F211
S31508015CF01299249D501A8A1A209922EAE272091ADF
S31508015D008D42D4BFC2EB0505C2EB010500280A95F1
S31508015D1079DB2498884276DC0D99C91A01F10108C4
S31508015D20002975D00999012978DDA9455ED040DD9C
S31508015D30B8F1010FA9EB050A60DC01250D990C9153
S31508015D4045452946A8BF414633911999681E6943B5
S31508015D50B1F5006FB8BF0020149001303A90099848
S31508015D60129E0128D8BF404680B22F9003FB09F046
S31508015D70801B0244259E16983044119E06FB02029A
S31508015D800BFB02F221981A920E9A03FB00230BFBD6
S31508015D9003F32793199BB1F5006FA8BF1946002392
S31508015DA01E911093109B339A93423ADB0C9B013355
S31508015DB092E70A9991FBF9F509FB151ABAF1000F51
S31508015DC00ED0B8F1010F05F10105A9EB0A0A0ADDA2
S31508015DD0514405FB09F088421CBF28213F9102E086
S31508015DE0B8F1010F0DDC0D990C91A9E7B8F1010F76
S31508015DF014DD494601254FF0000AEAE7494601251F
S31508015E00E7E70A99E5E74FF001080C93012502E057
S31508015E1045460D990C914FF0000A91E70D990C91A1
S31508015E20F4E7109B4345C4BF28233F93109BA8EB77
S31508015E30030393FBF5F205FB1233002B18BF01325E
S31508015E40012A099B189209D1012B3DDD00230B93E9
S31508015E50DDE90A321344189A534307E0012B30DC73
S31508015E60BAF1000F2AD10A9BCDF82CA01C933A9AB5
S31508015E70189B53430B9A9BB230930B9B002AA3F1B1
S31508015E800203C8BF4FF0FF333893279B13931A9B1E
S31508015E901F9300231D931D9B319A934280F29B8188
S31508015EA0BBF1000F40F34C81139B002BBCBF282389
S31508015EB03F93139B269300230F9311E028233F93C7
S31508015EC0D1E7CDF82CA0C3E70A9B1C9300230B93BB
S31508015ED0CDE70F9B139A9B18269344BF28233F931C
S31508015EE01E9B0F9A002BBCBF28233F931F9B9A1812
S31508015EF00F9B01335B4580F22F81349B4BEA0306E6
S31508015F00269B1E43164316F0010640F028811E9B68
S31508015F1013F0010640F0238101270226179B20462C
S31508015F2093FBF6F13D923C9128F077FF9BFBF6F245
S31508015F30D4F868023C992E920592299A049192FB0B
S31508015F40F6F1002F0CBF012305230391BDF8B41008
S31508015F502F9A0291BDF87010009201913D9A2B99E2
S31508015F603FAF0A44069700213C9328F07FFF0023A0
S31508015F7005932E9B2C9904931E9B069793FBF6F289
S31508015F8001230392BDF824200293309B0192269A9D
S31508015F9000930A443C9B0121D4F8680228F066FF65
S31508015FA04DF60003F0EE490A00EE103A0021D4F846
S31508015FB0680228F089FEF8EEE80AF3EE600A032182
S31508015FC0B0EE600AD4F8680228F07EFEF8EEC80A38
S31508015FD0F3EE600A0421B0EE600AD4F8680228F0EC
S31508015FE073FE3A462046099928F0E5FE3A462046C8
S31508015FF0189928F0E0FE00234FF0805200934121C2
S315080160002046019728F015FF3A4620460A9928F0B6
S31508016010D2FE3A4620462D9928F0CDFE002340F2BD
S315080160205311734A20460093019740F20A2328F038
S3150801603000FF204628F065FF02220021204628F0AD
S315080160407BFF204628F05DFF099B012B04DC01221A
S315080160500021204628F070FF0B9B002B40F381801E
S3150801606002220021204628F067FF0B9B012B78D0DE
S315080160709F1E3FAB01934FF01D6340F2D51100936C
S3150801608020464FF485735B4A28F0D3FE149B002BF8
S315080160901DDD204614993FAA28F08DFE01212046D0
S315080160A03FAA28F088FE00233FAA194600932046F6
S315080160B001921A4628F0BDFE204628F022FF012249
S315080160C02046114628F038FF204628F01AFF002FEF
S315080160D017DD012F3FAA55D13946204628F06BFE18
S315080160E03FAB0193002320461A461946009328F030
S315080160F0A0FE204628F005FF02220021204628F0AE
S315080161001BFF204628F0FDFE02220121204628F029
S3150801611013FF099B012B04DD01220021204628F0EB
S315080161200BFF204628F0EDFE3F9F002F4DD1289BFF
S31508016130002B43D10F9B33449B450F933FF7C9AEC1
S315080161401D9B329A01331D931F9B13441F93399A42
S31508016150139B134413939EE600270126DEE60027C8
S31508016160DCE63FAB01934FF01D6340F2D511009376
S31508016170204600231F4A28F05CFE149B002BC0DD35
S31508016180389F86E70B9B2046D91E28F014FE204629
S315080161903FAA012128F00FFE3FAB019300232046B9
S315080161A01A461946009328F044FE204628F0A9FE0F
S315080161B002220021204628F0BFFE9AE72046FEF774
S315080161C0EFFB07463F900028B4D0384641B0BDECF6
S315080161D0048BBDE8F08F109B3B9A013310931A9BF1
S315080161E013441A93199A279B13442793DAE500BF98
S315080161F0020001100304015010B40A680846137816
S31508016200022B10D014213023147913FB04130749E8
S315080162105B585179CB40DB4303F0010313705DF8FA
S31508016220044BFCF72FBF5DF8044B704730C0035091
S31508016230F7B50468012105463A2000F057FF002307
S3150801624001226179207902F0B1F8142230232179EB
S3150801625013FB01231D4A99586379D940C943A37988
S3150801626001F00101022B217017D100F0BDFB184A7C
S315080162702B466179207900F0E1FBFF280246607917
S315080162800ED12A46124900F015FC0123024661790E
S315080162902079CDE9003302F02FF8002003B0F0BDD4
S315080162A001262779002301460096384602F0E6F8CA
S315080162B02A460749607900F0FDFB00236179024609
S315080162C02079009301963346E5E700BF30C00350B5
S315080162D0F961010802681378022B24D014213023AE
S315080162E0107913FB001310495B585179CB4091790A
S315080162F003F00103012912D1508843EA40034FF6FE
S31508016300E07063F03F039BB2834202D11170538060
S3150801631070474FF6DF718B42F9D10021F6E711B9C3
S3150801632083F001031370704730C0035008B501218B
S315080163303A2000F0DBFE012304220321002002F0AB
S3150801634035F8002029F07DF80122354B3549C3F887
S3150801635044244FF40022A3F550335A66324BD3F83E
S31508016360FC20D20146D4D1F8803023F0030343F050
S315080163700203C1F880304FF4607000F0D1FE2A4B59
S3150801638000F5D520D3F8F02000F2FC4042F00102D6
S31508016390C3F8F020D3F8FC2042F08072C3F8FC2041
S315080163A0224AA3F55D431A60214B0222B0FBF3F0A2
S315080163B0204B01381861C3F8F0204FF48072C3F8F6
S315080163C004234FF060431C4A0020C3F8B02F1B4A30
S315080163D0C3F8802ED3F8002E42F48072C3F8002E3B
S315080163E0FF2283F82020D3F8002E22F48072C3F806
S315080163F0002E08BDD3F8FC2022F08072C3F8FC20D9
S31508016400D1F8802022F0030242F00202C1F880206E
S31508016410D3F8FC2042F08072C3F8FC20ABE700BF3A
S3150801642000D003500080005000ED00E0FF0300405B
S31508016430F8590D00000004E055CEACC5090001006D
S315080164404FF06043D3F8802E30B5D20715D5012415
S315080164500B4D8440D5F8FC2042F08072C5F8FC202B
S31508016460D3F8002E2243C3F8002E53F82020002A21
S31508016470F0D003F82010002030BD1120FCE700BF42
S3150801648000ED00E010B501224378017884783020C8
S315080164909A40054B00FB01331CB903F501531A60F9
S315080164A010BD03F58253FAE700C0035010B5012267
S315080164B043780178847830209A40054B00FB0133F4
S315080164C01CB903F582531A6010BD03F50153FAE7A7
S315080164D000C003500122437801789A40302359437A
S315080164E0014B5A50704700BF40F00350102130232A
S315080164F00246007813FB001305495B585178CB40D7
S3150801650003F0010093780BB980F00100704700BFD2
S3150801651030C003502DE9F04F9A46564B85B01B788B
S3150801652006460F461546DDF83C909DF844B0DDF861
S315080165305080002B00F09780072A00F296800E9B68
S31508016540002B00F09280B9F1000F00F08E80129BAB
S31508016550B3F5006F00F38980012803D1109B002B46
S3150801656000F08380444B03EB05131B7B002B7ED085
S31508016570424C10220021684635F0A6FD04EB45146D
S315080165801022A7BB3946204635F09EFD43F210037B
S315080165906380BBF1000F03D1E37843F00303E37093
S315080165A0364A0E9B02EB451CCCE90193129B690105
S315080165B0581E9DF84C30C0F30A0003F003039B06EE
S315080165C043EA001E53582E48012E00EA03004EEAFC
S315080165D00003CDF800A0535017D0B8F1000F2ED103
S315080165E09CF8023068F304138CF8023027E0002186
S315080165F0204635F069FD4FF444736380BBF1000F03
S31508016600CED1E37843F03003C9E713230CF1100E1A
S31508016610CCF80C309CE80F008EE80F006FF00301F0
S31508016620DCF81C20109B61F39F02012FCCF81C207B
S31508016630CCF8143003D1CCF81890CCF804300027E4
S315080166400D4A290102EB051342F80180159A2846DD
S315080166505A60694622469F605E7301F08BFF384691
S3150801666005B0BDE8F08F0748FAE70748F8E7074895
S31508016670F6E700BF91560020AC370020AC36002063
S315080166800F80FFF3028000F0018000F0078000F020
S3150801669038B5124B05461B78DBB1E0B128F05FFE31
S315080166A00F4A00231146147B54B92B6001251A01A0
S315080166B001EB03131D738C5028F057FE204638BD95
S315080166C00133082B02F11002EDD128F04EFE0548E0
S315080166D0F5E70548F3E70548F1E700BF91560020BD
S315080166E0AC370020048000F0028000F0018000F041
S315080166F038B528F034FE002305460B4A147B6CB9DD
S315080167000133082B02F11002F8D101F0D5FE074B2F
S3150801671028461C7028F029FE204603E0284628F062
S3150801672024FE034838BD00BFAC370020915600202F
S31508016730058000F00D4B10B51B78044693B1072868
S3150801674012D828F00CFE0A4B03EB04131A7B2AB164
S3150801675000241C7328F009FE204610BD28F005FE0A
S315080167600448FAE70448F8E70448F6E79156002092
S31508016770AC370020068000F0028000F0018000F0AE
S31508016780154B13B51868002301908DF8043028F0CD
S31508016790E6FD124B1C7824B128F0E7FD104802B03B
S315080167A010BD01221A7028F0E0FD0E4B01A81C73DA
S315080167B01C7783F82C4083F83C4083F84C4083F8D7
S315080167C05C4083F86C4083F87C4008238DF80730D9
S315080167D001F09EFE2046E2E72A0A050891560020A6
S315080167E0038000F0AC3700200A4A08B512785AB17E
S315080167F007280BD8084A02EB00131B7B43B100217B
S3150801680001F078FE002008BD0448FCE70448FAE7D1
S315080168100448F8E791560020AC370020028000F0C2
S31508016820018000F0078000F00A4A08B512785AB1CB
S3150801683007280BD8084A02EB00131B7B43B1012139
S3150801684001F058FE002008BD0448FCE70448FAE7B1
S315080168500448F8E791560020AC370020028000F082
S31508016860018000F0078000F00A4A08B5127852B193
S3150801687007280AD8084A02EB00131B7B3BB101F033
S31508016880C5FE002008BD0548FCE70548FAE70548A6
S31508016890F8E700BF91560020AC370020028000F0CF
S315080168A0018000F0078000F00D4B1B7893B1072893
S315080168B012D889B10B4B03EB00131B7B73B10A4B3F
S315080168C01A6D01238340134214BF012300230020BC
S315080168D00B7070470548704705487047054870476B
S315080168E091560020AC37002000000450028000F0C9
S315080168F0018000F0078000F00B4A10B512780C46AB
S3150801690062B107280CD859B1084A02EB00131B7B60
S3150801691043B101F08DFE2070002010BD0448FCE74C
S315080169200448FAE70448F8E791560020AC370020F6
S31508016930028000F0018000F0078000F0184B2DE975
S31508016940F0411F6D5B6D1F4000D5FEE7012600254E
S31508016950144CDFF85880374218D02368C8F85060BD
S31508016960A3B1A168284601316268A1609847637B93
S31508016970012B0BD150B90C4B03EB45131A7B60F372
S3150801698041021A731A7F60F341021A770135082DFD
S315080169904FEA460604F11004DDD1BDE8F08100BFD7
S315080169A000000450AC370020AC360020002004500B
S315080169B070B5044601250B4E04B970BD94FAA4F0CE
S315080169C0B0FA80F005FA00F306EB001224EA030494
S315080169D05368002BF0D0117B11B191689847EBE70A
S315080169E09847E9E72C38002008B5192001F046F840
S315080169F028B14FF00072074BC3F880211A601A209C
S31508016A0001F03CF828B14FF08062024BC3F88021AF
S31508016A101A6008BD00E100E038B505460C4628F0C5
S31508016A209EFC0022044B03EB05135C601A73BDE858
S31508016A30384028F09ABC00BF2C380020F8B5044627
S31508016A400D4617461E4628F08AFC1CB9052D1AD094
S31508016A50FF2421E0012C05D1012D21D0032DF7D1E9
S31508016A60042410E0022C07D1052D1BD0072D1BD0BD
S31508016A70002DEDD1062406E0032CE9D1022D15D00F
S31508016A80052DE5D10A240A4904F1100301EB031186
S31508016A900123C1E901760B7328F067FC2046F8BD8E
S31508016AA00324F0E70724EEE70824ECE70924EAE7DC
S31508016AB02C380020F8B505460E46174628F04FFC37
S31508016AC0134B2C46D3F8242405F0FC0122FA05F3CE
S31508016AD0DB0712D500230133DBB2042B04D1FF24D3
S31508016AE028F043FC2046F8BDEC1804F003040C44D6
S31508016AF022FA04FC1CF0010FEDD1FF2CF0D0012283
S31508016B00044B03EB0413C3E901671A73E8E700BFF3
S31508016B1000C003502C380020074BD3F82404D3F8BF
S31508016B20202403F50053104000F0553020F0502082
S31508016B30C3F82004FFF73CBF00C00350074BD3F846
S31508016B402404D3F8202403F50053104000F0AA309A
S31508016B5020F0A020C3F82004FFF72ABF00C0035085
S31508016B60024B1968024B18681AF006BDF00A002094
S31508016B70100B002070B59400224605460E4635F0E6
S31508016B80DBFC431C0AD058B922463146284635F063
S31508016B9071FA0028034808BF002070BD0248FCE7C7
S31508016BA00248FAE710E000F021E000F024E000F0E6
S31508016BB010B5044635F0C4FC431C10D088B901F061
S31508016BC0C5FD234620F003002044984201D1002048
S31508016BD010BD53F8042B0132F7D00348F8E70348F0
S31508016BE0F6E70348F4E700BF0EE000F021E000F005
S31508016BF024E000F008B528F0ABFB014B186008BD8E
S31508016C001C410020014B186828F0A6BB1C41002036
S31508016C10044BD3F88420D206FBD4D3F88400C0F3FE
S31508016C20811070470040005038B5104B0546D3F81F
S31508016C3080300C4603F00303022B0BD0032B0DD037
S31508016C40012B0FD1FDF7E4FC0E2305B1286004B131
S31508016C50236038BDFDF726FD0723F6E7FDF7D2FCCD
S31508016C600623F2E700231846EFE700BF008000502D
S31508016C7038B5184B0546D3F820010C4600F0070035
S31508016C80062823D8DFE800F0040A0E16121A1E0099
S31508016C90012305B1286004B1236038BDFDF7B2FCB4
S31508016CA00523F6E7FDF7E4FC0323F2E7FDF7FAFC13
S31508016CB00723EEE7FDF7F2FC0223EAE7FDF7A2FC5C
S31508016CC00623E6E7FDF7D4FC0423E2E7002318468A
S31508016CD0DFE700BF0080005038B5174B0546D3F8EB
S31508016CE028310C4603F00703013B052B20D8DFE8C2
S31508016CF003F003131B0F0B17FDF784FC052305B1DE
S31508016D00286004B1236038BDFDF77CFC0623F6E74D
S31508016D10FDF7C8FC0723F2E7FDF7AAFC0323EEE714
S31508016D20FDF7A6FC0423EAE7FDF7B8FC0223E6E72C
S31508016D3000231846E3E700BF0080005073B50D46EF
S31508016D400021114B0191D3F88041064604F0030452
S31508016D50022C13D0032C0CD0012C13D101A8FFF758
S31508016D6087FF10240EB1019B336005B12C6002B078
S31508016D7070BDFDF797FC07240190F3E7FDF78EFC3C
S31508016D800190EFE70C46EDE700800050002337B588
S31508016D900193164B0546D3F820320C4603F0070338
S31508016DA0042B21D8DFE803F0030B11161B0001237E
S31508016DB00DB1019A2A6004B1236003B030BD0021E8
S31508016DC001A8FFF789FF1223F2E7FDF76BFC0723FA
S31508016DD00190EDE727F031FF0A230190E8E7FDF777
S31508016DE0A3FC09230190E3E70023E1E700800050B3
S31508016DF038B5104B0546D3F840310C4603F003036A
S31508016E00022B0BD0032B0DD0012B0FD127F015FF29
S31508016E100A2305B1286004B1236038BDFDF784FC57
S31508016E200923F6E727F00CFF0C23F2E701230020DC
S31508016E30EFE700BF00800050002337B50193164BDA
S31508016E400546D3F860320C4603F00703013B032BD2
S31508016E501FD8DFE803F0020E1914002101A8FFF775
S31508016E6007FF10230DB1019A2A6004B1236003B00C
S31508016E7030BD002101A8FFF7BBFF1123F2E7FDF79B
S31508016E8011FC07230190EDE7FDF708FC02230190A9
S31508016E90E8E70023E6E700BF00800050002337B586
S31508016EA00193164B0546D3F894320C4603F00703B3
S31508016EB0013B032B1FD8DFE803F0020E191400214A
S31508016EC001A8FFF7D5FE10230DB1019A2A6004B176
S31508016ED0236003B030BD002101A8FFF789FF112304
S31508016EE0F2E7FDF7DFFB07230190EDE7FDF7D6FB98
S31508016EF002230190E8E70023E6E700BF008000507F
S31508016F0038B5144B0546D3F800020C4600F00700C5
S31508016F1004281BD8DFE800F003090D111500012329
S31508016F2005B1286004B1236038BD27F086FE0A231F
S31508016F30F6E7FDF7F9FB0923F2E727F081FE0C23B3
S31508016F40EEE7FDF77FFB0F23800AE9E700231846E2
S31508016F50E6E700BF0080005038B5144B0546D3F864
S31508016F6008020C4600F0070004281BD8DFE800F0E9
S31508016F7003090D111500012305B1286004B1236029
S31508016F8038BD27F05AFE0A23F6E7FDF7CDFB09239C
S31508016F90F2E727F055FE0C23EEE7FDF753FB0F2327
S31508016FA0800AE9E700231846E6E700BF008000509B
S31508016FB038B5104B0546D3F840320C4603F00303A7
S31508016FC0022B0BD0032B0DD0012B0FD127F035FE49
S31508016FD00A2305B1286004B1236038BDFDF7A4FB77
S31508016FE00923F6E727F02CFE0C23F2E701230020FC
S31508016FF0EFE700BF0080005038B5104B0546D3F8BF
S3150801700060310C4603F00303022B0BD0032B0DD082
S31508017010012B0FD127F011FE0A2305B1286004B10F
S31508017020236038BDFDF780FB0923F6E727F008FE44
S315080170300C23F2E701230020EFE700BF0080005090
S31508017040B0F5207F1FD009D8B0F5007F15D003D839
S3150801705068B1B0F5C07F0AD000200CE0B0F5607FBA
S31508017060FAD10B4BD3F88000C0F3011003E0084BAB
S31508017070186FC0F3033001307047054BD3F8900001
S31508017080C0F30460F7E7024B186FC0F38020F2E7FC
S315080170900080005002464FF48030104B10B59866B8
S315080170A00020FFF7CDFF504341F671320C4BDC69E6
S315080170B0DA635A6804F4803422F4401259B909494A
S315080170C0884294BF00200120000502435A600CB192
S315080170D00022DA6310BD0449F2E700BF00900050B0
S315080170E000000350005A6202002D3101430905D000
S315080170F0012B0CD0022B084B18BF002300F01F00F0
S3150801710039B103F58053012282401A607047034B57
S31508017110F4E703F50053F6E76880005064800050F1
S315080171201FB5002180280446CDE9001100F0A5808D
S3150801713035D85E2846D85E2844D8DFE800F0A24351
S315080171404343434343434343434343434343434300
S315080171504343434343434343434343434343A2AA2A
S31508017160A2AABABABABABAAAC44DDA714DAAAAAAD1
S315080171704343434343434343AAAAAA79E4AA43435D
S315080171804343434343434343434343BAA2A2A2DF90
S315080171904D4DE9885EBF434343434399A200B0F589
S315080171A0B06F00F090802DD8B0F5207F71D00CD843
S315080171B0B0F5C07F65D0B0F5007F65D0B0F5807FAA
S315080171C000F08680009804B010BDB0F5607F6BD0E2
S315080171D00DD8B0F5407FF5D1FDF734FA02464FF4E4
S315080171E02070FFF72DFFB2FBF0F252085AE0B0F516
S315080171F0806F5ED0B0F5A06FE4D100216846FFF735
S31508017200C5FDDFE7B0F5106F78D016D8B0F5E06F99
S3150801721079D00AD8B0F5C06F6BD0B0F5D06FD1D19F
S3150801722000216846FFF76CFECCE7B0F5F06FC9D1CF
S3150801723000216846FFF7E0FEC4E7B0F5406F3DD090
S3150801724013D8B0F5206F63D0B0F5286FBAD10021F5
S31508017250324B0391D3F8703203F00303012B02D1A9
S3150801726003A8FFF7C5FD039B3CE0B0F5486FA9D11C
S3150801727000216846FFF712FEA4E7FDF7C9F9009059
S31508017280A0E7FDF7DFF9FAE7FDF7C2F9024620465E
S3150801729004E0FDF7D7F902464FF42070FFF7D0FE58
S315080172A0B2FBF0F200928DE701A8FFF7BDFC019A47
S315080172B0EDE700216846FFF7DBFC83E70021684616
S315080172C0FFF70AFD7EE700216846FFF737FD79E7F4
S315080172D04FF0E02302911B695B0705D5FDF7B2F96B
S315080172E00290029B00936DE703A902A8FFF780FDB0
S315080172F0F7E700216846FFF77BFD63E7002168464B
S31508017300FFF72AFE5EE700216846FFF751FE59E7B7
S3150801731000216846FFF790FD54E700BF0080005042
S3150801732008B58020FFF7FCFE034B98429EBF4FF439
S315080173308032024B1A6708BD005A620200A000504B
S315080173401FB503460020B3F5807F019000F0C18088
S3150801735064D85D2B55D84C2B07D82D2B48D8232B11
S315080173602CD8019805B05DF804FB4D3B102BF8D8D5
S3150801737001A252F823F000BFC9740108637301081A
S3150801738063730108637301087F7401086373010855
S31508017390637301084D7501089D740108437401085A
S315080173A04375010863730108637301086373010870
S315080173B0637301086373010857750108243B092B98
S315080173C0CFD801A252F823F0C9740108C97401087B
S315080173D0C9740108C9740108C974010863730108ED
S315080173E0BF740108637301085F740108FF7401081B
S315080173F03D2B7FD03E2BB4D1002001A9FFF7D8FD44
S31508017400AFE7802BADD1594B1B6F03F00703013B47
S31508017410032BA6D8DFE803F0514E858DB3F5F06F3F
S3150801742068D021D8B3F5B06F49D00FD8B3F5607FCE
S3150801743000F0838095D3B3F5806F45D0B3F5A06F7F
S315080174408FD1002001A9FFF7A1FC8AE7B3F5D06F18
S3150801745055D0B3F5E06FCFD0B3F5C06F81D1002019
S3150801746001A9FFF7C5FC7CE7B3F5206F6ED00BD8F1
S31508017470B3F5086F48D0B3F5106F7FF472AF0020EB
S3150801748001A9FFF769FD6CE7B3F5406F59D0B3F56C
S31508017490486F60D0B3F5286F7FF463AF334BD3F8E9
S315080174A0703203F00303012B5AD0022B0CBF1523AC
S315080174B0002300E00523019353E70223FBE700209D
S315080174C001A9FFF73BFC4CE7002001A9FFF7D0FB18
S315080174D047E74FF0E02302901B695B0705D5FDF7E7
S315080174E0B1F80D230393039BE5E703A902A8FFF768
S315080174F07FFCF8E7002001A9FFF77EFD31E70020B0
